{
  "contractName": "MultiSend",
  "abi": [
    {
      "inputs": [],
      "stateMutability": "nonpayable",
      "type": "constructor"
    },
    {
      "stateMutability": "payable",
      "type": "receive"
    },
    {
      "inputs": [],
      "name": "getOwner",
      "outputs": [
        {
          "internalType": "address",
          "name": "",
          "type": "address"
        }
      ],
      "stateMutability": "view",
      "type": "function"
    },
    {
      "inputs": [
        {
          "internalType": "address payable[]",
          "name": "addrs",
          "type": "address[]"
        }
      ],
      "name": "withdrawls",
      "outputs": [],
      "stateMutability": "payable",
      "type": "function"
    }
  ],
  "bytecode": "0x608060405234801561001057600080fd5b50336000806101000a81548173ffffffffffffffffffffffffffffffffffffffff021916908373ffffffffffffffffffffffffffffffffffffffff1602179055506105f3806100606000396000f3fe60806040526004361061002d5760003560e01c806301b7f7ef14610039578063893d20e81461005557610034565b3661003457005b600080fd5b610053600480360381019061004e91906103aa565b610080565b005b34801561006157600080fd5b5061006a6101b6565b6040516100779190610414565b60405180910390f35b60008054906101000a900473ffffffffffffffffffffffffffffffffffffffff1673ffffffffffffffffffffffffffffffffffffffff163373ffffffffffffffffffffffffffffffffffffffff161461010e576040517f08c379a00000000000000000000000000000000000000000000000000000000081526004016101059061048c565b60405180910390fd5b60005b81518110156101b2576000479050600083516002836101309190610514565b61013a9190610514565b905083838151811061014f5761014e610545565b5b602002602001015173ffffffffffffffffffffffffffffffffffffffff166108fc829081150290604051600060405180830381858888f1935050505015801561019c573d6000803e3d6000fd5b50505080806101aa90610574565b915050610111565b5050565b60008060009054906101000a900473ffffffffffffffffffffffffffffffffffffffff16905090565b6000604051905090565b600080fd5b600080fd5b600080fd5b6000601f19601f8301169050919050565b7f4e487b7100000000000000000000000000000000000000000000000000000000600052604160045260246000fd5b610241826101f8565b810181811067ffffffffffffffff821117156102605761025f610209565b5b80604052505050565b60006102736101df565b905061027f8282610238565b919050565b600067ffffffffffffffff82111561029f5761029e610209565b5b602082029050602081019050919050565b600080fd5b600073ffffffffffffffffffffffffffffffffffffffff82169050919050565b60006102e0826102b5565b9050919050565b6102f0816102d5565b81146102fb57600080fd5b50565b60008135905061030d816102e7565b92915050565b600061032661032184610284565b610269565b90508083825260208201905060208402830185811115610349576103486102b0565b5b835b81811015610372578061035e88826102fe565b84526020840193505060208101905061034b565b5050509392505050565b600082601f830112610391576103906101f3565b5b81356103a1848260208601610313565b91505092915050565b6000602082840312156103c0576103bf6101e9565b5b600082013567ffffffffffffffff8111156103de576103dd6101ee565b5b6103ea8482850161037c565b91505092915050565b60006103fe826102b5565b9050919050565b61040e816103f3565b82525050565b60006020820190506104296000830184610405565b92915050565b600082825260208201905092915050565b7f43616c6c6572206973206e6f74206f776e657200000000000000000000000000600082015250565b600061047660138361042f565b915061048182610440565b602082019050919050565b600060208201905081810360008301526104a581610469565b9050919050565b6000819050919050565b7f4e487b7100000000000000000000000000000000000000000000000000000000600052601260045260246000fd5b7f4e487b7100000000000000000000000000000000000000000000000000000000600052601160045260246000fd5b600061051f826104ac565b915061052a836104ac565b92508261053a576105396104b6565b5b828204905092915050565b7f4e487b7100000000000000000000000000000000000000000000000000000000600052603260045260246000fd5b600061057f826104ac565b91507fffffffffffffffffffffffffffffffffffffffffffffffffffffffffffffffff8214156105b2576105b16104e5565b5b60018201905091905056fea264697066735822122014bccc01b5e99e058bf841a518c98c695da4a9cbad3d114497346930af4669ec64736f6c634300080c0033",
  "immutableReferences": {},
  "source": "// SPDX-License-Identifier: GPL-3.0\n\npragma solidity >=0.7.0 <0.9.0;\n\nlibrary SafeMath {\n    function add(uint a, uint b) internal pure returns(uint c) {\n        c = a + b;\n        require(c >= a);\n    }\n    function sub(uint a, uint b) internal pure returns(uint c) {\n        require(b <= a);\n        c = a - b;\n    }\n    function mul(uint a, uint b) internal pure returns(uint c) {\n        c = a * b;\n        require(a == 0 || c / a == b);\n    }\n    function div(uint a, uint b) internal pure returns(uint c) {\n        require(b > 0);\n        c = a / b;\n    }\n}\n\ncontract MultiSend {\n    \n    using SafeMath for uint256;\n    \n    address private owner;\n\n    //uint256 public timeLocked = 1 minutes;\n    \n    modifier isOwner() \n    {\n        require(msg.sender == owner, \"Caller is not owner\");\n        _;\n    }\n\n    /* modifier isLocked()\n    {\n        require(block.timestamp >= timeLocked, \"Withdrawal Locked for 1 min!\");\n        _;\n    } */\n    \n    constructor() {\n        owner = msg.sender;\n    }\n    \n    \n    function getOwner() external view returns (address) {\n        return owner;\n    }\n\n    receive() external payable {\n    }\n    \n    function withdrawls(address payable[] memory addrs) payable public isOwner /* isLocked */ {\n        \n        //require(msg.value > 0, \"Insufficient fund\");\n        \n        for (uint i=0; i < addrs.length; i++) \n        {\n            uint256 balance = address(this).balance;\n            uint256 value = (balance/2)/addrs.length;\n            addrs[i].transfer(value);\n        }\n\n        //timeLocked = timeLocked + block.timestamp;\n\n    }\n    \n}",
  "sourcePath": "/home/blackhole/nodejs/multicall/contracts/TransferRoyalty.sol",
  "compiler": {
    "name": "solc",
    "version": "0.8.12+commit.f00d7308.Emscripten.clang"
  },
  "schemaVersion": "3.4.5",
  "updatedAt": "2022-03-22T09:47:30.259Z",
  "devdoc": {
    "kind": "dev",
    "methods": {},
    "version": 1
  },
  "userdoc": {
    "kind": "user",
    "methods": {},
    "version": 1
  }
}