{
  "contractName": "RBCC",
  "abi": [
    {
      "inputs": [
        {
          "internalType": "string",
          "name": "_name",
          "type": "string"
        },
        {
          "internalType": "string",
          "name": "_symbol",
          "type": "string"
        },
        {
          "internalType": "string",
          "name": "_initBaseURI",
          "type": "string"
        },
        {
          "internalType": "string",
          "name": "_initNotRevealedUri",
          "type": "string"
        }
      ],
      "stateMutability": "nonpayable",
      "type": "constructor"
    },
    {
      "anonymous": false,
      "inputs": [
        {
          "indexed": true,
          "internalType": "address",
          "name": "owner",
          "type": "address"
        },
        {
          "indexed": true,
          "internalType": "address",
          "name": "approved",
          "type": "address"
        },
        {
          "indexed": true,
          "internalType": "uint256",
          "name": "tokenId",
          "type": "uint256"
        }
      ],
      "name": "Approval",
      "type": "event"
    },
    {
      "anonymous": false,
      "inputs": [
        {
          "indexed": true,
          "internalType": "address",
          "name": "owner",
          "type": "address"
        },
        {
          "indexed": true,
          "internalType": "address",
          "name": "operator",
          "type": "address"
        },
        {
          "indexed": false,
          "internalType": "bool",
          "name": "approved",
          "type": "bool"
        }
      ],
      "name": "ApprovalForAll",
      "type": "event"
    },
    {
      "anonymous": false,
      "inputs": [
        {
          "indexed": true,
          "internalType": "address",
          "name": "previousOwner",
          "type": "address"
        },
        {
          "indexed": true,
          "internalType": "address",
          "name": "newOwner",
          "type": "address"
        }
      ],
      "name": "OwnershipTransferred",
      "type": "event"
    },
    {
      "anonymous": false,
      "inputs": [
        {
          "indexed": true,
          "internalType": "address",
          "name": "from",
          "type": "address"
        },
        {
          "indexed": true,
          "internalType": "address",
          "name": "to",
          "type": "address"
        },
        {
          "indexed": true,
          "internalType": "uint256",
          "name": "tokenId",
          "type": "uint256"
        }
      ],
      "name": "Transfer",
      "type": "event"
    },
    {
      "inputs": [
        {
          "internalType": "address",
          "name": "",
          "type": "address"
        }
      ],
      "name": "addressMintedBalance",
      "outputs": [
        {
          "internalType": "uint256",
          "name": "",
          "type": "uint256"
        }
      ],
      "stateMutability": "view",
      "type": "function",
      "constant": true
    },
    {
      "inputs": [
        {
          "internalType": "address",
          "name": "to",
          "type": "address"
        },
        {
          "internalType": "uint256",
          "name": "tokenId",
          "type": "uint256"
        }
      ],
      "name": "approve",
      "outputs": [],
      "stateMutability": "nonpayable",
      "type": "function"
    },
    {
      "inputs": [
        {
          "internalType": "address",
          "name": "owner",
          "type": "address"
        }
      ],
      "name": "balanceOf",
      "outputs": [
        {
          "internalType": "uint256",
          "name": "",
          "type": "uint256"
        }
      ],
      "stateMutability": "view",
      "type": "function",
      "constant": true
    },
    {
      "inputs": [],
      "name": "baseExtension",
      "outputs": [
        {
          "internalType": "string",
          "name": "",
          "type": "string"
        }
      ],
      "stateMutability": "view",
      "type": "function",
      "constant": true
    },
    {
      "inputs": [],
      "name": "baseURI",
      "outputs": [
        {
          "internalType": "string",
          "name": "",
          "type": "string"
        }
      ],
      "stateMutability": "view",
      "type": "function",
      "constant": true
    },
    {
      "inputs": [],
      "name": "costofPresale",
      "outputs": [
        {
          "internalType": "uint256",
          "name": "",
          "type": "uint256"
        }
      ],
      "stateMutability": "view",
      "type": "function",
      "constant": true
    },
    {
      "inputs": [],
      "name": "costofPublicSale",
      "outputs": [
        {
          "internalType": "uint256",
          "name": "",
          "type": "uint256"
        }
      ],
      "stateMutability": "view",
      "type": "function",
      "constant": true
    },
    {
      "inputs": [
        {
          "internalType": "uint256",
          "name": "tokenId",
          "type": "uint256"
        }
      ],
      "name": "getApproved",
      "outputs": [
        {
          "internalType": "address",
          "name": "",
          "type": "address"
        }
      ],
      "stateMutability": "view",
      "type": "function",
      "constant": true
    },
    {
      "inputs": [
        {
          "internalType": "address",
          "name": "owner",
          "type": "address"
        },
        {
          "internalType": "address",
          "name": "operator",
          "type": "address"
        }
      ],
      "name": "isApprovedForAll",
      "outputs": [
        {
          "internalType": "bool",
          "name": "",
          "type": "bool"
        }
      ],
      "stateMutability": "view",
      "type": "function",
      "constant": true
    },
    {
      "inputs": [],
      "name": "maxMintAmount",
      "outputs": [
        {
          "internalType": "uint256",
          "name": "",
          "type": "uint256"
        }
      ],
      "stateMutability": "view",
      "type": "function",
      "constant": true
    },
    {
      "inputs": [],
      "name": "maxSupply",
      "outputs": [
        {
          "internalType": "uint256",
          "name": "",
          "type": "uint256"
        }
      ],
      "stateMutability": "view",
      "type": "function",
      "constant": true
    },
    {
      "inputs": [],
      "name": "maxSupplyForPresale",
      "outputs": [
        {
          "internalType": "uint256",
          "name": "",
          "type": "uint256"
        }
      ],
      "stateMutability": "view",
      "type": "function",
      "constant": true
    },
    {
      "inputs": [],
      "name": "maxSupplyForPublicSale",
      "outputs": [
        {
          "internalType": "uint256",
          "name": "",
          "type": "uint256"
        }
      ],
      "stateMutability": "view",
      "type": "function",
      "constant": true
    },
    {
      "inputs": [],
      "name": "name",
      "outputs": [
        {
          "internalType": "string",
          "name": "",
          "type": "string"
        }
      ],
      "stateMutability": "view",
      "type": "function",
      "constant": true
    },
    {
      "inputs": [],
      "name": "notRevealedUri",
      "outputs": [
        {
          "internalType": "string",
          "name": "",
          "type": "string"
        }
      ],
      "stateMutability": "view",
      "type": "function",
      "constant": true
    },
    {
      "inputs": [],
      "name": "onlyPresale",
      "outputs": [
        {
          "internalType": "bool",
          "name": "",
          "type": "bool"
        }
      ],
      "stateMutability": "view",
      "type": "function",
      "constant": true
    },
    {
      "inputs": [],
      "name": "owner",
      "outputs": [
        {
          "internalType": "address",
          "name": "",
          "type": "address"
        }
      ],
      "stateMutability": "view",
      "type": "function",
      "constant": true
    },
    {
      "inputs": [
        {
          "internalType": "uint256",
          "name": "tokenId",
          "type": "uint256"
        }
      ],
      "name": "ownerOf",
      "outputs": [
        {
          "internalType": "address",
          "name": "",
          "type": "address"
        }
      ],
      "stateMutability": "view",
      "type": "function",
      "constant": true
    },
    {
      "inputs": [],
      "name": "paused",
      "outputs": [
        {
          "internalType": "bool",
          "name": "",
          "type": "bool"
        }
      ],
      "stateMutability": "view",
      "type": "function",
      "constant": true
    },
    {
      "inputs": [],
      "name": "renounceOwnership",
      "outputs": [],
      "stateMutability": "nonpayable",
      "type": "function"
    },
    {
      "inputs": [],
      "name": "revealed",
      "outputs": [
        {
          "internalType": "bool",
          "name": "",
          "type": "bool"
        }
      ],
      "stateMutability": "view",
      "type": "function",
      "constant": true
    },
    {
      "inputs": [
        {
          "internalType": "address",
          "name": "from",
          "type": "address"
        },
        {
          "internalType": "address",
          "name": "to",
          "type": "address"
        },
        {
          "internalType": "uint256",
          "name": "tokenId",
          "type": "uint256"
        }
      ],
      "name": "safeTransferFrom",
      "outputs": [],
      "stateMutability": "nonpayable",
      "type": "function"
    },
    {
      "inputs": [
        {
          "internalType": "address",
          "name": "from",
          "type": "address"
        },
        {
          "internalType": "address",
          "name": "to",
          "type": "address"
        },
        {
          "internalType": "uint256",
          "name": "tokenId",
          "type": "uint256"
        },
        {
          "internalType": "bytes",
          "name": "_data",
          "type": "bytes"
        }
      ],
      "name": "safeTransferFrom",
      "outputs": [],
      "stateMutability": "nonpayable",
      "type": "function"
    },
    {
      "inputs": [
        {
          "internalType": "address",
          "name": "operator",
          "type": "address"
        },
        {
          "internalType": "bool",
          "name": "approved",
          "type": "bool"
        }
      ],
      "name": "setApprovalForAll",
      "outputs": [],
      "stateMutability": "nonpayable",
      "type": "function"
    },
    {
      "inputs": [
        {
          "internalType": "bytes4",
          "name": "interfaceId",
          "type": "bytes4"
        }
      ],
      "name": "supportsInterface",
      "outputs": [
        {
          "internalType": "bool",
          "name": "",
          "type": "bool"
        }
      ],
      "stateMutability": "view",
      "type": "function",
      "constant": true
    },
    {
      "inputs": [],
      "name": "symbol",
      "outputs": [
        {
          "internalType": "string",
          "name": "",
          "type": "string"
        }
      ],
      "stateMutability": "view",
      "type": "function",
      "constant": true
    },
    {
      "inputs": [
        {
          "internalType": "uint256",
          "name": "index",
          "type": "uint256"
        }
      ],
      "name": "tokenByIndex",
      "outputs": [
        {
          "internalType": "uint256",
          "name": "",
          "type": "uint256"
        }
      ],
      "stateMutability": "view",
      "type": "function",
      "constant": true
    },
    {
      "inputs": [
        {
          "internalType": "address",
          "name": "owner",
          "type": "address"
        },
        {
          "internalType": "uint256",
          "name": "index",
          "type": "uint256"
        }
      ],
      "name": "tokenOfOwnerByIndex",
      "outputs": [
        {
          "internalType": "uint256",
          "name": "",
          "type": "uint256"
        }
      ],
      "stateMutability": "view",
      "type": "function",
      "constant": true
    },
    {
      "inputs": [],
      "name": "totalSupply",
      "outputs": [
        {
          "internalType": "uint256",
          "name": "",
          "type": "uint256"
        }
      ],
      "stateMutability": "view",
      "type": "function",
      "constant": true
    },
    {
      "inputs": [
        {
          "internalType": "address",
          "name": "from",
          "type": "address"
        },
        {
          "internalType": "address",
          "name": "to",
          "type": "address"
        },
        {
          "internalType": "uint256",
          "name": "tokenId",
          "type": "uint256"
        }
      ],
      "name": "transferFrom",
      "outputs": [],
      "stateMutability": "nonpayable",
      "type": "function"
    },
    {
      "inputs": [
        {
          "internalType": "address",
          "name": "newOwner",
          "type": "address"
        }
      ],
      "name": "transferOwnership",
      "outputs": [],
      "stateMutability": "nonpayable",
      "type": "function"
    },
    {
      "inputs": [
        {
          "internalType": "uint256",
          "name": "_mintAmount",
          "type": "uint256"
        }
      ],
      "name": "mint",
      "outputs": [],
      "stateMutability": "payable",
      "type": "function",
      "payable": true
    },
    {
      "inputs": [
        {
          "internalType": "uint256",
          "name": "_mintAmount",
          "type": "uint256"
        }
      ],
      "name": "whitelistMint",
      "outputs": [],
      "stateMutability": "payable",
      "type": "function",
      "payable": true
    },
    {
      "inputs": [
        {
          "internalType": "address[]",
          "name": "_WL",
          "type": "address[]"
        }
      ],
      "name": "addwhitelistaddresses",
      "outputs": [],
      "stateMutability": "nonpayable",
      "type": "function"
    },
    {
      "inputs": [
        {
          "internalType": "address",
          "name": "_owner",
          "type": "address"
        }
      ],
      "name": "walletOfOwner",
      "outputs": [
        {
          "internalType": "uint256[]",
          "name": "",
          "type": "uint256[]"
        }
      ],
      "stateMutability": "view",
      "type": "function",
      "constant": true
    },
    {
      "inputs": [
        {
          "internalType": "uint256",
          "name": "tokenId",
          "type": "uint256"
        }
      ],
      "name": "tokenURI",
      "outputs": [
        {
          "internalType": "string",
          "name": "",
          "type": "string"
        }
      ],
      "stateMutability": "view",
      "type": "function",
      "constant": true
    },
    {
      "inputs": [
        {
          "internalType": "string",
          "name": "_newBaseURI",
          "type": "string"
        }
      ],
      "name": "setBaseURI",
      "outputs": [],
      "stateMutability": "nonpayable",
      "type": "function"
    },
    {
      "inputs": [
        {
          "internalType": "string",
          "name": "_notRevealedURI",
          "type": "string"
        }
      ],
      "name": "setNotRevealedURI",
      "outputs": [],
      "stateMutability": "nonpayable",
      "type": "function"
    },
    {
      "inputs": [
        {
          "internalType": "string",
          "name": "_newBaseExtension",
          "type": "string"
        }
      ],
      "name": "setBaseExtension",
      "outputs": [],
      "stateMutability": "nonpayable",
      "type": "function"
    },
    {
      "inputs": [],
      "name": "reveal",
      "outputs": [],
      "stateMutability": "nonpayable",
      "type": "function"
    },
    {
      "inputs": [
        {
          "internalType": "uint256",
          "name": "_newmaxMintAmount",
          "type": "uint256"
        }
      ],
      "name": "setmaxMintAmount",
      "outputs": [],
      "stateMutability": "nonpayable",
      "type": "function"
    },
    {
      "inputs": [
        {
          "internalType": "bool",
          "name": "_state",
          "type": "bool"
        }
      ],
      "name": "pause",
      "outputs": [],
      "stateMutability": "nonpayable",
      "type": "function"
    },
    {
      "inputs": [
        {
          "internalType": "bool",
          "name": "_state",
          "type": "bool"
        }
      ],
      "name": "setOnlyPresale",
      "outputs": [],
      "stateMutability": "nonpayable",
      "type": "function"
    },
    {
      "inputs": [],
      "name": "withdraw",
      "outputs": [],
      "stateMutability": "payable",
      "type": "function",
      "payable": true
    }
  ],
  "bytecode": "0x60806040526040518060400160405280600581526020017f2e6a736f6e000000000000000000000000000000000000000000000000000000815250600d908051906020019062000051929190620003e3565b5066b1a2bc2ec50000600e5567013c310749028000600f55610bb860105561012c601155601154601054620000879190620004cc565b60125560016013556000601460006101000a81548160ff0219169083151502179055506000601460016101000a81548160ff0219169083151502179055506001601460026101000a81548160ff021916908315150217905550348015620000ed57600080fd5b5060405162005cd638038062005cd68339818101604052810190620001139190620006a4565b838381600090805190602001906200012d929190620003e3565b50806001908051906020019062000146929190620003e3565b505050620001696200015d6200019560201b60201c565b6200019d60201b60201c565b6200017a826200026360201b60201c565b6200018b816200030e60201b60201c565b505050506200087a565b600033905090565b6000600a60009054906101000a900473ffffffffffffffffffffffffffffffffffffffff16905081600a60006101000a81548173ffffffffffffffffffffffffffffffffffffffff021916908373ffffffffffffffffffffffffffffffffffffffff1602179055508173ffffffffffffffffffffffffffffffffffffffff168173ffffffffffffffffffffffffffffffffffffffff167f8be0079c531659141344cd1fd0a4f28419497f9722a3daafe3b4186f6b6457e060405160405180910390a35050565b620002736200019560201b60201c565b73ffffffffffffffffffffffffffffffffffffffff1662000299620003b960201b60201c565b73ffffffffffffffffffffffffffffffffffffffff1614620002f2576040517f08c379a0000000000000000000000000000000000000000000000000000000008152600401620002e990620007f3565b60405180910390fd5b80600b90805190602001906200030a929190620003e3565b5050565b6200031e6200019560201b60201c565b73ffffffffffffffffffffffffffffffffffffffff1662000344620003b960201b60201c565b73ffffffffffffffffffffffffffffffffffffffff16146200039d576040517f08c379a00000000000000000000000000000000000000000000000000000000081526004016200039490620007f3565b60405180910390fd5b80600c9080519060200190620003b5929190620003e3565b5050565b6000600a60009054906101000a900473ffffffffffffffffffffffffffffffffffffffff16905090565b828054620003f19062000844565b90600052602060002090601f01602090048101928262000415576000855562000461565b82601f106200043057805160ff191683800117855562000461565b8280016001018555821562000461579182015b828111156200046057825182559160200191906001019062000443565b5b50905062000470919062000474565b5090565b5b808211156200048f57600081600090555060010162000475565b5090565b6000819050919050565b7f4e487b7100000000000000000000000000000000000000000000000000000000600052601160045260246000fd5b6000620004d98262000493565b9150620004e68362000493565b925082821015620004fc57620004fb6200049d565b5b828203905092915050565b6000604051905090565b600080fd5b600080fd5b600080fd5b600080fd5b6000601f19601f8301169050919050565b7f4e487b7100000000000000000000000000000000000000000000000000000000600052604160045260246000fd5b620005708262000525565b810181811067ffffffffffffffff8211171562000592576200059162000536565b5b80604052505050565b6000620005a762000507565b9050620005b5828262000565565b919050565b600067ffffffffffffffff821115620005d857620005d762000536565b5b620005e38262000525565b9050602081019050919050565b60005b8381101562000610578082015181840152602081019050620005f3565b8381111562000620576000848401525b50505050565b60006200063d6200063784620005ba565b6200059b565b9050828152602081018484840111156200065c576200065b62000520565b5b62000669848285620005f0565b509392505050565b600082601f8301126200068957620006886200051b565b5b81516200069b84826020860162000626565b91505092915050565b60008060008060808587031215620006c157620006c062000511565b5b600085015167ffffffffffffffff811115620006e257620006e162000516565b5b620006f08782880162000671565b945050602085015167ffffffffffffffff81111562000714576200071362000516565b5b620007228782880162000671565b935050604085015167ffffffffffffffff81111562000746576200074562000516565b5b620007548782880162000671565b925050606085015167ffffffffffffffff81111562000778576200077762000516565b5b620007868782880162000671565b91505092959194509250565b600082825260208201905092915050565b7f4f776e61626c653a2063616c6c6572206973206e6f7420746865206f776e6572600082015250565b6000620007db60208362000792565b9150620007e882620007a3565b602082019050919050565b600060208201905081810360008301526200080e81620007cc565b9050919050565b7f4e487b7100000000000000000000000000000000000000000000000000000000600052602260045260246000fd5b600060028204905060018216806200085d57607f821691505b6020821081141562000874576200087362000815565b5b50919050565b61544c806200088a6000396000f3fe6080604052600436106102675760003560e01c80636fb2468f11610144578063c6682862116100b6578063da3ef23f1161007a578063da3ef23f146108f5578063e53c16561461091e578063e985e9c514610949578063f0bb4eb514610986578063f2c4ce1e146109b1578063f2fde38b146109da57610267565b8063c66828621461080e578063c87b56dd14610839578063ca777e2114610876578063cd4457f51461089f578063d5abeb01146108ca57610267565b80638da5cb5b116101085780638da5cb5b1461073357806395d89b411461075e578063a0712d6814610789578063a22cb465146107a5578063a475b5dd146107ce578063b88d4fde146107e557610267565b80636fb2468f1461066f57806370a082311461069a578063715018a6146106d75780637f00c7a6146106ee578063868ff4a21461071757610267565b8063338abf37116101dd57806351830227116101a1578063518302271461055d57806355f804b3146105885780635c975abb146105b157806361cb9161146105dc5780636352211e146106075780636c0360eb1461064457610267565b8063338abf37146104875780633ccfd60b146104b057806342842e0e146104ba578063438b6300146104e35780634f6ccce71461052057610267565b8063095ea7b31161022f578063095ea7b31461036557806318160ddd1461038e57806318cae269146103b9578063239c70ae146103f657806323b872dd146104215780632f745c591461044a57610267565b806301ffc9a71461026c57806302329a29146102a957806306fdde03146102d2578063081812fc146102fd578063081c8c441461033a575b600080fd5b34801561027857600080fd5b50610293600480360381019061028e91906137cb565b610a03565b6040516102a09190613813565b60405180910390f35b3480156102b557600080fd5b506102d060048036038101906102cb919061385a565b610a7d565b005b3480156102de57600080fd5b506102e7610b16565b6040516102f49190613920565b60405180910390f35b34801561030957600080fd5b50610324600480360381019061031f9190613978565b610ba8565b60405161033191906139e6565b60405180910390f35b34801561034657600080fd5b5061034f610c2d565b60405161035c9190613920565b60405180910390f35b34801561037157600080fd5b5061038c60048036038101906103879190613a2d565b610cbb565b005b34801561039a57600080fd5b506103a3610dd3565b6040516103b09190613a7c565b60405180910390f35b3480156103c557600080fd5b506103e060048036038101906103db9190613a97565b610de0565b6040516103ed9190613a7c565b60405180910390f35b34801561040257600080fd5b5061040b610df8565b6040516104189190613a7c565b60405180910390f35b34801561042d57600080fd5b5061044860048036038101906104439190613ac4565b610dfe565b005b34801561045657600080fd5b50610471600480360381019061046c9190613a2d565b610e5e565b60405161047e9190613a7c565b60405180910390f35b34801561049357600080fd5b506104ae60048036038101906104a99190613b7c565b610f03565b005b6104b86110ae565b005b3480156104c657600080fd5b506104e160048036038101906104dc9190613ac4565b6111aa565b005b3480156104ef57600080fd5b5061050a60048036038101906105059190613a97565b6111ca565b6040516105179190613c87565b60405180910390f35b34801561052c57600080fd5b5061054760048036038101906105429190613978565b611278565b6040516105549190613a7c565b60405180910390f35b34801561056957600080fd5b506105726112e9565b60405161057f9190613813565b60405180910390f35b34801561059457600080fd5b506105af60048036038101906105aa9190613dd9565b6112fc565b005b3480156105bd57600080fd5b506105c6611392565b6040516105d39190613813565b60405180910390f35b3480156105e857600080fd5b506105f16113a5565b6040516105fe9190613813565b60405180910390f35b34801561061357600080fd5b5061062e60048036038101906106299190613978565b6113b8565b60405161063b91906139e6565b60405180910390f35b34801561065057600080fd5b5061065961146a565b6040516106669190613920565b60405180910390f35b34801561067b57600080fd5b506106846114f8565b6040516106919190613a7c565b60405180910390f35b3480156106a657600080fd5b506106c160048036038101906106bc9190613a97565b6114fe565b6040516106ce9190613a7c565b60405180910390f35b3480156106e357600080fd5b506106ec6115b6565b005b3480156106fa57600080fd5b5061071560048036038101906107109190613978565b61163e565b005b610731600480360381019061072c9190613978565b6116c4565b005b34801561073f57600080fd5b50610748611a0b565b60405161075591906139e6565b60405180910390f35b34801561076a57600080fd5b50610773611a35565b6040516107809190613920565b60405180910390f35b6107a3600480360381019061079e9190613978565b611ac7565b005b3480156107b157600080fd5b506107cc60048036038101906107c79190613e22565b611df9565b005b3480156107da57600080fd5b506107e3611e0f565b005b3480156107f157600080fd5b5061080c60048036038101906108079190613f03565b611ea8565b005b34801561081a57600080fd5b50610823611f0a565b6040516108309190613920565b60405180910390f35b34801561084557600080fd5b50610860600480360381019061085b9190613978565b611f98565b60405161086d9190613920565b60405180910390f35b34801561088257600080fd5b5061089d6004803603810190610898919061385a565b6120f1565b005b3480156108ab57600080fd5b506108b461218a565b6040516108c19190613a7c565b60405180910390f35b3480156108d657600080fd5b506108df612190565b6040516108ec9190613a7c565b60405180910390f35b34801561090157600080fd5b5061091c60048036038101906109179190613dd9565b612196565b005b34801561092a57600080fd5b5061093361222c565b6040516109409190613a7c565b60405180910390f35b34801561095557600080fd5b50610970600480360381019061096b9190613f86565b612232565b60405161097d9190613813565b60405180910390f35b34801561099257600080fd5b5061099b6122c6565b6040516109a89190613a7c565b60405180910390f35b3480156109bd57600080fd5b506109d860048036038101906109d39190613dd9565b6122cc565b005b3480156109e657600080fd5b50610a0160048036038101906109fc9190613a97565b612362565b005b60007f780e9d63000000000000000000000000000000000000000000000000000000007bffffffffffffffffffffffffffffffffffffffffffffffffffffffff1916827bffffffffffffffffffffffffffffffffffffffffffffffffffffffff19161480610a765750610a758261245a565b5b9050919050565b610a8561253c565b73ffffffffffffffffffffffffffffffffffffffff16610aa3611a0b565b73ffffffffffffffffffffffffffffffffffffffff1614610af9576040517f08c379a0000000000000000000000000000000000000000000000000000000008152600401610af090614012565b60405180910390fd5b80601460006101000a81548160ff02191690831515021790555050565b606060008054610b2590614061565b80601f0160208091040260200160405190810160405280929190818152602001828054610b5190614061565b8015610b9e5780601f10610b7357610100808354040283529160200191610b9e565b820191906000526020600020905b815481529060010190602001808311610b8157829003601f168201915b5050505050905090565b6000610bb382612544565b610bf2576040517f08c379a0000000000000000000000000000000000000000000000000000000008152600401610be990614105565b60405180910390fd5b6004600083815260200190815260200160002060009054906101000a900473ffffffffffffffffffffffffffffffffffffffff169050919050565b600c8054610c3a90614061565b80601f0160208091040260200160405190810160405280929190818152602001828054610c6690614061565b8015610cb35780601f10610c8857610100808354040283529160200191610cb3565b820191906000526020600020905b815481529060010190602001808311610c9657829003601f168201915b505050505081565b6000610cc6826113b8565b90508073ffffffffffffffffffffffffffffffffffffffff168373ffffffffffffffffffffffffffffffffffffffff161415610d37576040517f08c379a0000000000000000000000000000000000000000000000000000000008152600401610d2e90614197565b60405180910390fd5b8073ffffffffffffffffffffffffffffffffffffffff16610d5661253c565b73ffffffffffffffffffffffffffffffffffffffff161480610d855750610d8481610d7f61253c565b612232565b5b610dc4576040517f08c379a0000000000000000000000000000000000000000000000000000000008152600401610dbb90614229565b60405180910390fd5b610dce83836125b0565b505050565b6000600880549050905090565b60176020528060005260406000206000915090505481565b60135481565b610e0f610e0961253c565b82612669565b610e4e576040517f08c379a0000000000000000000000000000000000000000000000000000000008152600401610e45906142bb565b60405180910390fd5b610e59838383612747565b505050565b6000610e69836114fe565b8210610eaa576040517f08c379a0000000000000000000000000000000000000000000000000000000008152600401610ea19061434d565b60405180910390fd5b600660008473ffffffffffffffffffffffffffffffffffffffff1673ffffffffffffffffffffffffffffffffffffffff168152602001908152602001600020600083815260200190815260200160002054905092915050565b610f0b61253c565b73ffffffffffffffffffffffffffffffffffffffff16610f29611a0b565b73ffffffffffffffffffffffffffffffffffffffff1614610f7f576040517f08c379a0000000000000000000000000000000000000000000000000000000008152600401610f7690614012565b60405180910390fd5b60005b828290508110156110a957600160166000858585818110610fa657610fa561436d565b5b9050602002016020810190610fbb9190613a97565b73ffffffffffffffffffffffffffffffffffffffff1673ffffffffffffffffffffffffffffffffffffffff16815260200190815260200160002060006101000a81548160ff02191690831515021790555060158383838181106110215761102061436d565b5b90506020020160208101906110369190613a97565b9080600181540180825580915050600190039060005260206000200160009091909190916101000a81548173ffffffffffffffffffffffffffffffffffffffff021916908373ffffffffffffffffffffffffffffffffffffffff16021790555080806110a1906143cb565b915050610f82565b505050565b6110b661253c565b73ffffffffffffffffffffffffffffffffffffffff166110d4611a0b565b73ffffffffffffffffffffffffffffffffffffffff161461112a576040517f08c379a000000000000000000000000000000000000000000000000000000000815260040161112190614012565b60405180910390fd5b6000611134611a0b565b73ffffffffffffffffffffffffffffffffffffffff164760405161115790614445565b60006040518083038185875af1925050503d8060008114611194576040519150601f19603f3d011682016040523d82523d6000602084013e611199565b606091505b50509050806111a757600080fd5b50565b6111c583838360405180602001604052806000815250611ea8565b505050565b606060006111d7836114fe565b905060008167ffffffffffffffff8111156111f5576111f4613cae565b5b6040519080825280602002602001820160405280156112235781602001602082028036833780820191505090505b50905060005b8281101561126d5761123b8582610e5e565b82828151811061124e5761124d61436d565b5b6020026020010181815250508080611265906143cb565b915050611229565b508092505050919050565b6000611282610dd3565b82106112c3576040517f08c379a00000000000000000000000000000000000000000000000000000000081526004016112ba906144cc565b60405180910390fd5b600882815481106112d7576112d661436d565b5b90600052602060002001549050919050565b601460019054906101000a900460ff1681565b61130461253c565b73ffffffffffffffffffffffffffffffffffffffff16611322611a0b565b73ffffffffffffffffffffffffffffffffffffffff1614611378576040517f08c379a000000000000000000000000000000000000000000000000000000000815260040161136f90614012565b60405180910390fd5b80600b908051906020019061138e9291906136bc565b5050565b601460009054906101000a900460ff1681565b601460029054906101000a900460ff1681565b6000806002600084815260200190815260200160002060009054906101000a900473ffffffffffffffffffffffffffffffffffffffff169050600073ffffffffffffffffffffffffffffffffffffffff168173ffffffffffffffffffffffffffffffffffffffff161415611461576040517f08c379a00000000000000000000000000000000000000000000000000000000081526004016114589061455e565b60405180910390fd5b80915050919050565b600b805461147790614061565b80601f01602080910402602001604051908101604052809291908181526020018280546114a390614061565b80156114f05780601f106114c5576101008083540402835291602001916114f0565b820191906000526020600020905b8154815290600101906020018083116114d357829003601f168201915b505050505081565b60125481565b60008073ffffffffffffffffffffffffffffffffffffffff168273ffffffffffffffffffffffffffffffffffffffff16141561156f576040517f08c379a0000000000000000000000000000000000000000000000000000000008152600401611566906145f0565b60405180910390fd5b600360008373ffffffffffffffffffffffffffffffffffffffff1673ffffffffffffffffffffffffffffffffffffffff168152602001908152602001600020549050919050565b6115be61253c565b73ffffffffffffffffffffffffffffffffffffffff166115dc611a0b565b73ffffffffffffffffffffffffffffffffffffffff1614611632576040517f08c379a000000000000000000000000000000000000000000000000000000000815260040161162990614012565b60405180910390fd5b61163c60006129ae565b565b61164661253c565b73ffffffffffffffffffffffffffffffffffffffff16611664611a0b565b73ffffffffffffffffffffffffffffffffffffffff16146116ba576040517f08c379a00000000000000000000000000000000000000000000000000000000081526004016116b190614012565b60405180910390fd5b8060138190555050565b601460009054906101000a900460ff1615611714576040517f08c379a000000000000000000000000000000000000000000000000000000000815260040161170b9061465c565b60405180910390fd5b601460029054906101000a900460ff16611763576040517f08c379a000000000000000000000000000000000000000000000000000000000815260040161175a906146c8565b60405180910390fd5b600061176d610dd3565b905060135482146117b3576040517f08c379a00000000000000000000000000000000000000000000000000000000081526004016117aa9061475a565b60405180910390fd5b60115482826117c2919061477a565b1115611803576040517f08c379a00000000000000000000000000000000000000000000000000000000081526004016117fa90614842565b60405180910390fd5b6000601760003373ffffffffffffffffffffffffffffffffffffffff1673ffffffffffffffffffffffffffffffffffffffff1681526020019081526020016000205490506013548382611856919061477a565b1115611897576040517f08c379a000000000000000000000000000000000000000000000000000000000815260040161188e906148d4565b60405180910390fd5b60011515601660003373ffffffffffffffffffffffffffffffffffffffff1673ffffffffffffffffffffffffffffffffffffffff16815260200190815260200160002060009054906101000a900460ff1615151461192a576040517f08c379a000000000000000000000000000000000000000000000000000000000815260040161192190614966565b60405180910390fd5b82600e546119389190614986565b34101561197a576040517f08c379a000000000000000000000000000000000000000000000000000000000815260040161197190614a2c565b60405180910390fd5b6000600190505b838111611a0557601760003373ffffffffffffffffffffffffffffffffffffffff1673ffffffffffffffffffffffffffffffffffffffff16815260200190815260200160002060008154809291906119d8906143cb565b91905055506119f23382856119ed919061477a565b612a74565b80806119fd906143cb565b915050611981565b50505050565b6000600a60009054906101000a900473ffffffffffffffffffffffffffffffffffffffff16905090565b606060018054611a4490614061565b80601f0160208091040260200160405190810160405280929190818152602001828054611a7090614061565b8015611abd5780601f10611a9257610100808354040283529160200191611abd565b820191906000526020600020905b815481529060010190602001808311611aa057829003601f168201915b5050505050905090565b601460009054906101000a900460ff1615611b17576040517f08c379a0000000000000000000000000000000000000000000000000000000008152600401611b0e9061465c565b60405180910390fd5b6000611b21610dd3565b90506013548214611b67576040517f08c379a0000000000000000000000000000000000000000000000000000000008152600401611b5e90614a98565b60405180910390fd5b6012548282611b76919061477a565b1115611bb7576040517f08c379a0000000000000000000000000000000000000000000000000000000008152600401611bae90614b04565b60405180910390fd5b611bbf611a0b565b73ffffffffffffffffffffffffffffffffffffffff163373ffffffffffffffffffffffffffffffffffffffff1614611d695760001515601660003373ffffffffffffffffffffffffffffffffffffffff1673ffffffffffffffffffffffffffffffffffffffff16815260200190815260200160002060009054906101000a900460ff16151514611c84576040517f08c379a0000000000000000000000000000000000000000000000000000000008152600401611c7b90614b70565b60405180910390fd5b601460029054906101000a900460ff1615611cd4576040517f08c379a0000000000000000000000000000000000000000000000000000000008152600401611ccb90614bdc565b60405180910390fd5b6013548214611d18576040517f08c379a0000000000000000000000000000000000000000000000000000000008152600401611d0f90614c6e565b60405180910390fd5b81600f54611d269190614986565b341015611d68576040517f08c379a0000000000000000000000000000000000000000000000000000000008152600401611d5f90614a2c565b60405180910390fd5b5b6000600190505b828111611df457601760003373ffffffffffffffffffffffffffffffffffffffff1673ffffffffffffffffffffffffffffffffffffffff1681526020019081526020016000206000815480929190611dc7906143cb565b9190505550611de1338284611ddc919061477a565b612a74565b8080611dec906143cb565b915050611d70565b505050565b611e0b611e0461253c565b8383612a92565b5050565b611e1761253c565b73ffffffffffffffffffffffffffffffffffffffff16611e35611a0b565b73ffffffffffffffffffffffffffffffffffffffff1614611e8b576040517f08c379a0000000000000000000000000000000000000000000000000000000008152600401611e8290614012565b60405180910390fd5b6001601460016101000a81548160ff021916908315150217905550565b611eb9611eb361253c565b83612669565b611ef8576040517f08c379a0000000000000000000000000000000000000000000000000000000008152600401611eef906142bb565b60405180910390fd5b611f0484848484612bff565b50505050565b600d8054611f1790614061565b80601f0160208091040260200160405190810160405280929190818152602001828054611f4390614061565b8015611f905780601f10611f6557610100808354040283529160200191611f90565b820191906000526020600020905b815481529060010190602001808311611f7357829003601f168201915b505050505081565b6060611fa382612544565b611fe2576040517f08c379a0000000000000000000000000000000000000000000000000000000008152600401611fd990614d00565b60405180910390fd5b60001515601460019054906101000a900460ff161515141561209057600c805461200b90614061565b80601f016020809104026020016040519081016040528092919081815260200182805461203790614061565b80156120845780601f1061205957610100808354040283529160200191612084565b820191906000526020600020905b81548152906001019060200180831161206757829003601f168201915b505050505090506120ec565b600061209a612c5b565b905060008151116120ba57604051806020016040528060008152506120e8565b806120c484612ced565b600d6040516020016120d893929190614df0565b6040516020818303038152906040525b9150505b919050565b6120f961253c565b73ffffffffffffffffffffffffffffffffffffffff16612117611a0b565b73ffffffffffffffffffffffffffffffffffffffff161461216d576040517f08c379a000000000000000000000000000000000000000000000000000000000815260040161216490614012565b60405180910390fd5b80601460026101000a81548160ff02191690831515021790555050565b600f5481565b60105481565b61219e61253c565b73ffffffffffffffffffffffffffffffffffffffff166121bc611a0b565b73ffffffffffffffffffffffffffffffffffffffff1614612212576040517f08c379a000000000000000000000000000000000000000000000000000000000815260040161220990614012565b60405180910390fd5b80600d90805190602001906122289291906136bc565b5050565b60115481565b6000600560008473ffffffffffffffffffffffffffffffffffffffff1673ffffffffffffffffffffffffffffffffffffffff16815260200190815260200160002060008373ffffffffffffffffffffffffffffffffffffffff1673ffffffffffffffffffffffffffffffffffffffff16815260200190815260200160002060009054906101000a900460ff16905092915050565b600e5481565b6122d461253c565b73ffffffffffffffffffffffffffffffffffffffff166122f2611a0b565b73ffffffffffffffffffffffffffffffffffffffff1614612348576040517f08c379a000000000000000000000000000000000000000000000000000000000815260040161233f90614012565b60405180910390fd5b80600c908051906020019061235e9291906136bc565b5050565b61236a61253c565b73ffffffffffffffffffffffffffffffffffffffff16612388611a0b565b73ffffffffffffffffffffffffffffffffffffffff16146123de576040517f08c379a00000000000000000000000000000000000000000000000000000000081526004016123d590614012565b60405180910390fd5b600073ffffffffffffffffffffffffffffffffffffffff168173ffffffffffffffffffffffffffffffffffffffff16141561244e576040517f08c379a000000000000000000000000000000000000000000000000000000000815260040161244590614e93565b60405180910390fd5b612457816129ae565b50565b60007f80ac58cd000000000000000000000000000000000000000000000000000000007bffffffffffffffffffffffffffffffffffffffffffffffffffffffff1916827bffffffffffffffffffffffffffffffffffffffffffffffffffffffff1916148061252557507f5b5e139f000000000000000000000000000000000000000000000000000000007bffffffffffffffffffffffffffffffffffffffffffffffffffffffff1916827bffffffffffffffffffffffffffffffffffffffffffffffffffffffff1916145b80612535575061253482612e4e565b5b9050919050565b600033905090565b60008073ffffffffffffffffffffffffffffffffffffffff166002600084815260200190815260200160002060009054906101000a900473ffffffffffffffffffffffffffffffffffffffff1673ffffffffffffffffffffffffffffffffffffffff1614159050919050565b816004600083815260200190815260200160002060006101000a81548173ffffffffffffffffffffffffffffffffffffffff021916908373ffffffffffffffffffffffffffffffffffffffff160217905550808273ffffffffffffffffffffffffffffffffffffffff16612623836113b8565b73ffffffffffffffffffffffffffffffffffffffff167f8c5be1e5ebec7d5bd14f71427d1e84f3dd0314c0f7b2291e5b200ac8c7c3b92560405160405180910390a45050565b600061267482612544565b6126b3576040517f08c379a00000000000000000000000000000000000000000000000000000000081526004016126aa90614f25565b60405180910390fd5b60006126be836113b8565b90508073ffffffffffffffffffffffffffffffffffffffff168473ffffffffffffffffffffffffffffffffffffffff16148061272d57508373ffffffffffffffffffffffffffffffffffffffff1661271584610ba8565b73ffffffffffffffffffffffffffffffffffffffff16145b8061273e575061273d8185612232565b5b91505092915050565b8273ffffffffffffffffffffffffffffffffffffffff16612767826113b8565b73ffffffffffffffffffffffffffffffffffffffff16146127bd576040517f08c379a00000000000000000000000000000000000000000000000000000000081526004016127b490614fb7565b60405180910390fd5b600073ffffffffffffffffffffffffffffffffffffffff168273ffffffffffffffffffffffffffffffffffffffff16141561282d576040517f08c379a000000000000000000000000000000000000000000000000000000000815260040161282490615049565b60405180910390fd5b612838838383612eb8565b6128436000826125b0565b6001600360008573ffffffffffffffffffffffffffffffffffffffff1673ffffffffffffffffffffffffffffffffffffffff16815260200190815260200160002060008282546128939190615069565b925050819055506001600360008473ffffffffffffffffffffffffffffffffffffffff1673ffffffffffffffffffffffffffffffffffffffff16815260200190815260200160002060008282546128ea919061477a565b92505081905550816002600083815260200190815260200160002060006101000a81548173ffffffffffffffffffffffffffffffffffffffff021916908373ffffffffffffffffffffffffffffffffffffffff160217905550808273ffffffffffffffffffffffffffffffffffffffff168473ffffffffffffffffffffffffffffffffffffffff167fddf252ad1be2c89b69c2b068fc378daa952ba7f163c4a11628f55a4df523b3ef60405160405180910390a46129a9838383612fcc565b505050565b6000600a60009054906101000a900473ffffffffffffffffffffffffffffffffffffffff16905081600a60006101000a81548173ffffffffffffffffffffffffffffffffffffffff021916908373ffffffffffffffffffffffffffffffffffffffff1602179055508173ffffffffffffffffffffffffffffffffffffffff168173ffffffffffffffffffffffffffffffffffffffff167f8be0079c531659141344cd1fd0a4f28419497f9722a3daafe3b4186f6b6457e060405160405180910390a35050565b612a8e828260405180602001604052806000815250612fd1565b5050565b8173ffffffffffffffffffffffffffffffffffffffff168373ffffffffffffffffffffffffffffffffffffffff161415612b01576040517f08c379a0000000000000000000000000000000000000000000000000000000008152600401612af8906150e9565b60405180910390fd5b80600560008573ffffffffffffffffffffffffffffffffffffffff1673ffffffffffffffffffffffffffffffffffffffff16815260200190815260200160002060008473ffffffffffffffffffffffffffffffffffffffff1673ffffffffffffffffffffffffffffffffffffffff16815260200190815260200160002060006101000a81548160ff0219169083151502179055508173ffffffffffffffffffffffffffffffffffffffff168373ffffffffffffffffffffffffffffffffffffffff167f17307eab39ab6107e8899845ad3d59bd9653f200f220920489ca2b5937696c3183604051612bf29190613813565b60405180910390a3505050565b612c0a848484612747565b612c168484848461302c565b612c55576040517f08c379a0000000000000000000000000000000000000000000000000000000008152600401612c4c9061517b565b60405180910390fd5b50505050565b6060600b8054612c6a90614061565b80601f0160208091040260200160405190810160405280929190818152602001828054612c9690614061565b8015612ce35780601f10612cb857610100808354040283529160200191612ce3565b820191906000526020600020905b815481529060010190602001808311612cc657829003601f168201915b5050505050905090565b60606000821415612d35576040518060400160405280600181526020017f30000000000000000000000000000000000000000000000000000000000000008152509050612e49565b600082905060005b60008214612d67578080612d50906143cb565b915050600a82612d6091906151ca565b9150612d3d565b60008167ffffffffffffffff811115612d8357612d82613cae565b5b6040519080825280601f01601f191660200182016040528015612db55781602001600182028036833780820191505090505b5090505b60008514612e4257600182612dce9190615069565b9150600a85612ddd91906151fb565b6030612de9919061477a565b60f81b818381518110612dff57612dfe61436d565b5b60200101907effffffffffffffffffffffffffffffffffffffffffffffffffffffffffffff1916908160001a905350600a85612e3b91906151ca565b9450612db9565b8093505050505b919050565b60007f01ffc9a7000000000000000000000000000000000000000000000000000000007bffffffffffffffffffffffffffffffffffffffffffffffffffffffff1916827bffffffffffffffffffffffffffffffffffffffffffffffffffffffff1916149050919050565b612ec38383836131b4565b600073ffffffffffffffffffffffffffffffffffffffff168373ffffffffffffffffffffffffffffffffffffffff161415612f0657612f01816131b9565b612f45565b8173ffffffffffffffffffffffffffffffffffffffff168373ffffffffffffffffffffffffffffffffffffffff1614612f4457612f438382613202565b5b5b600073ffffffffffffffffffffffffffffffffffffffff168273ffffffffffffffffffffffffffffffffffffffff161415612f8857612f838161336f565b612fc7565b8273ffffffffffffffffffffffffffffffffffffffff168273ffffffffffffffffffffffffffffffffffffffff1614612fc657612fc58282613440565b5b5b505050565b505050565b612fdb83836134bf565b612fe8600084848461302c565b613027576040517f08c379a000000000000000000000000000000000000000000000000000000000815260040161301e9061517b565b60405180910390fd5b505050565b600061304d8473ffffffffffffffffffffffffffffffffffffffff16613699565b156131a7578373ffffffffffffffffffffffffffffffffffffffff1663150b7a0261307661253c565b8786866040518563ffffffff1660e01b81526004016130989493929190615281565b6020604051808303816000875af19250505080156130d457506040513d601f19601f820116820180604052508101906130d191906152e2565b60015b613157573d8060008114613104576040519150601f19603f3d011682016040523d82523d6000602084013e613109565b606091505b5060008151141561314f576040517f08c379a00000000000000000000000000000000000000000000000000000000081526004016131469061517b565b60405180910390fd5b805181602001fd5b63150b7a0260e01b7bffffffffffffffffffffffffffffffffffffffffffffffffffffffff1916817bffffffffffffffffffffffffffffffffffffffffffffffffffffffff1916149150506131ac565b600190505b949350505050565b505050565b6008805490506009600083815260200190815260200160002081905550600881908060018154018082558091505060019003906000526020600020016000909190919091505550565b6000600161320f846114fe565b6132199190615069565b90506000600760008481526020019081526020016000205490508181146132fe576000600660008673ffffffffffffffffffffffffffffffffffffffff1673ffffffffffffffffffffffffffffffffffffffff168152602001908152602001600020600084815260200190815260200160002054905080600660008773ffffffffffffffffffffffffffffffffffffffff1673ffffffffffffffffffffffffffffffffffffffff168152602001908152602001600020600084815260200190815260200160002081905550816007600083815260200190815260200160002081905550505b6007600084815260200190815260200160002060009055600660008573ffffffffffffffffffffffffffffffffffffffff1673ffffffffffffffffffffffffffffffffffffffff16815260200190815260200160002060008381526020019081526020016000206000905550505050565b600060016008805490506133839190615069565b90506000600960008481526020019081526020016000205490506000600883815481106133b3576133b261436d565b5b9060005260206000200154905080600883815481106133d5576133d461436d565b5b9060005260206000200181905550816009600083815260200190815260200160002081905550600960008581526020019081526020016000206000905560088054806134245761342361530f565b5b6001900381819060005260206000200160009055905550505050565b600061344b836114fe565b905081600660008573ffffffffffffffffffffffffffffffffffffffff1673ffffffffffffffffffffffffffffffffffffffff168152602001908152602001600020600083815260200190815260200160002081905550806007600084815260200190815260200160002081905550505050565b600073ffffffffffffffffffffffffffffffffffffffff168273ffffffffffffffffffffffffffffffffffffffff16141561352f576040517f08c379a00000000000000000000000000000000000000000000000000000000081526004016135269061538a565b60405180910390fd5b61353881612544565b15613578576040517f08c379a000000000000000000000000000000000000000000000000000000000815260040161356f906153f6565b60405180910390fd5b61358460008383612eb8565b6001600360008473ffffffffffffffffffffffffffffffffffffffff1673ffffffffffffffffffffffffffffffffffffffff16815260200190815260200160002060008282546135d4919061477a565b92505081905550816002600083815260200190815260200160002060006101000a81548173ffffffffffffffffffffffffffffffffffffffff021916908373ffffffffffffffffffffffffffffffffffffffff160217905550808273ffffffffffffffffffffffffffffffffffffffff16600073ffffffffffffffffffffffffffffffffffffffff167fddf252ad1be2c89b69c2b068fc378daa952ba7f163c4a11628f55a4df523b3ef60405160405180910390a461369560008383612fcc565b5050565b6000808273ffffffffffffffffffffffffffffffffffffffff163b119050919050565b8280546136c890614061565b90600052602060002090601f0160209004810192826136ea5760008555613731565b82601f1061370357805160ff1916838001178555613731565b82800160010185558215613731579182015b82811115613730578251825591602001919060010190613715565b5b50905061373e9190613742565b5090565b5b8082111561375b576000816000905550600101613743565b5090565b6000604051905090565b600080fd5b600080fd5b60007fffffffff0000000000000000000000000000000000000000000000000000000082169050919050565b6137a881613773565b81146137b357600080fd5b50565b6000813590506137c58161379f565b92915050565b6000602082840312156137e1576137e0613769565b5b60006137ef848285016137b6565b91505092915050565b60008115159050919050565b61380d816137f8565b82525050565b60006020820190506138286000830184613804565b92915050565b613837816137f8565b811461384257600080fd5b50565b6000813590506138548161382e565b92915050565b6000602082840312156138705761386f613769565b5b600061387e84828501613845565b91505092915050565b600081519050919050565b600082825260208201905092915050565b60005b838110156138c15780820151818401526020810190506138a6565b838111156138d0576000848401525b50505050565b6000601f19601f8301169050919050565b60006138f282613887565b6138fc8185613892565b935061390c8185602086016138a3565b613915816138d6565b840191505092915050565b6000602082019050818103600083015261393a81846138e7565b905092915050565b6000819050919050565b61395581613942565b811461396057600080fd5b50565b6000813590506139728161394c565b92915050565b60006020828403121561398e5761398d613769565b5b600061399c84828501613963565b91505092915050565b600073ffffffffffffffffffffffffffffffffffffffff82169050919050565b60006139d0826139a5565b9050919050565b6139e0816139c5565b82525050565b60006020820190506139fb60008301846139d7565b92915050565b613a0a816139c5565b8114613a1557600080fd5b50565b600081359050613a2781613a01565b92915050565b60008060408385031215613a4457613a43613769565b5b6000613a5285828601613a18565b9250506020613a6385828601613963565b9150509250929050565b613a7681613942565b82525050565b6000602082019050613a916000830184613a6d565b92915050565b600060208284031215613aad57613aac613769565b5b6000613abb84828501613a18565b91505092915050565b600080600060608486031215613add57613adc613769565b5b6000613aeb86828701613a18565b9350506020613afc86828701613a18565b9250506040613b0d86828701613963565b9150509250925092565b600080fd5b600080fd5b600080fd5b60008083601f840112613b3c57613b3b613b17565b5b8235905067ffffffffffffffff811115613b5957613b58613b1c565b5b602083019150836020820283011115613b7557613b74613b21565b5b9250929050565b60008060208385031215613b9357613b92613769565b5b600083013567ffffffffffffffff811115613bb157613bb061376e565b5b613bbd85828601613b26565b92509250509250929050565b600081519050919050565b600082825260208201905092915050565b6000819050602082019050919050565b613bfe81613942565b82525050565b6000613c108383613bf5565b60208301905092915050565b6000602082019050919050565b6000613c3482613bc9565b613c3e8185613bd4565b9350613c4983613be5565b8060005b83811015613c7a578151613c618882613c04565b9750613c6c83613c1c565b925050600181019050613c4d565b5085935050505092915050565b60006020820190508181036000830152613ca18184613c29565b905092915050565b600080fd5b7f4e487b7100000000000000000000000000000000000000000000000000000000600052604160045260246000fd5b613ce6826138d6565b810181811067ffffffffffffffff82111715613d0557613d04613cae565b5b80604052505050565b6000613d1861375f565b9050613d248282613cdd565b919050565b600067ffffffffffffffff821115613d4457613d43613cae565b5b613d4d826138d6565b9050602081019050919050565b82818337600083830152505050565b6000613d7c613d7784613d29565b613d0e565b905082815260208101848484011115613d9857613d97613ca9565b5b613da3848285613d5a565b509392505050565b600082601f830112613dc057613dbf613b17565b5b8135613dd0848260208601613d69565b91505092915050565b600060208284031215613def57613dee613769565b5b600082013567ffffffffffffffff811115613e0d57613e0c61376e565b5b613e1984828501613dab565b91505092915050565b60008060408385031215613e3957613e38613769565b5b6000613e4785828601613a18565b9250506020613e5885828601613845565b9150509250929050565b600067ffffffffffffffff821115613e7d57613e7c613cae565b5b613e86826138d6565b9050602081019050919050565b6000613ea6613ea184613e62565b613d0e565b905082815260208101848484011115613ec257613ec1613ca9565b5b613ecd848285613d5a565b509392505050565b600082601f830112613eea57613ee9613b17565b5b8135613efa848260208601613e93565b91505092915050565b60008060008060808587031215613f1d57613f1c613769565b5b6000613f2b87828801613a18565b9450506020613f3c87828801613a18565b9350506040613f4d87828801613963565b925050606085013567ffffffffffffffff811115613f6e57613f6d61376e565b5b613f7a87828801613ed5565b91505092959194509250565b60008060408385031215613f9d57613f9c613769565b5b6000613fab85828601613a18565b9250506020613fbc85828601613a18565b9150509250929050565b7f4f776e61626c653a2063616c6c6572206973206e6f7420746865206f776e6572600082015250565b6000613ffc602083613892565b915061400782613fc6565b602082019050919050565b6000602082019050818103600083015261402b81613fef565b9050919050565b7f4e487b7100000000000000000000000000000000000000000000000000000000600052602260045260246000fd5b6000600282049050600182168061407957607f821691505b6020821081141561408d5761408c614032565b5b50919050565b7f4552433732313a20617070726f76656420717565727920666f72206e6f6e657860008201527f697374656e7420746f6b656e0000000000000000000000000000000000000000602082015250565b60006140ef602c83613892565b91506140fa82614093565b604082019050919050565b6000602082019050818103600083015261411e816140e2565b9050919050565b7f4552433732313a20617070726f76616c20746f2063757272656e74206f776e6560008201527f7200000000000000000000000000000000000000000000000000000000000000602082015250565b6000614181602183613892565b915061418c82614125565b604082019050919050565b600060208201905081810360008301526141b081614174565b9050919050565b7f4552433732313a20617070726f76652063616c6c6572206973206e6f74206f7760008201527f6e6572206e6f7220617070726f76656420666f7220616c6c0000000000000000602082015250565b6000614213603883613892565b915061421e826141b7565b604082019050919050565b6000602082019050818103600083015261424281614206565b9050919050565b7f4552433732313a207472616e736665722063616c6c6572206973206e6f74206f60008201527f776e6572206e6f7220617070726f766564000000000000000000000000000000602082015250565b60006142a5603183613892565b91506142b082614249565b604082019050919050565b600060208201905081810360008301526142d481614298565b9050919050565b7f455243373231456e756d657261626c653a206f776e657220696e646578206f7560008201527f74206f6620626f756e6473000000000000000000000000000000000000000000602082015250565b6000614337602b83613892565b9150614342826142db565b604082019050919050565b600060208201905081810360008301526143668161432a565b9050919050565b7f4e487b7100000000000000000000000000000000000000000000000000000000600052603260045260246000fd5b7f4e487b7100000000000000000000000000000000000000000000000000000000600052601160045260246000fd5b60006143d682613942565b91507fffffffffffffffffffffffffffffffffffffffffffffffffffffffffffffffff8214156144095761440861439c565b5b600182019050919050565b600081905092915050565b50565b600061442f600083614414565b915061443a8261441f565b600082019050919050565b600061445082614422565b9150819050919050565b7f455243373231456e756d657261626c653a20676c6f62616c20696e646578206f60008201527f7574206f6620626f756e64730000000000000000000000000000000000000000602082015250565b60006144b6602c83613892565b91506144c18261445a565b604082019050919050565b600060208201905081810360008301526144e5816144a9565b9050919050565b7f4552433732313a206f776e657220717565727920666f72206e6f6e657869737460008201527f656e7420746f6b656e0000000000000000000000000000000000000000000000602082015250565b6000614548602983613892565b9150614553826144ec565b604082019050919050565b600060208201905081810360008301526145778161453b565b9050919050565b7f4552433732313a2062616c616e636520717565727920666f7220746865207a6560008201527f726f206164647265737300000000000000000000000000000000000000000000602082015250565b60006145da602a83613892565b91506145e58261457e565b604082019050919050565b60006020820190508181036000830152614609816145cd565b9050919050565b7f74686520636f6e74726163742069732070617573656400000000000000000000600082015250565b6000614646601683613892565b915061465182614610565b602082019050919050565b6000602082019050818103600083015261467581614639565b9050919050565b7f50726573616c6520686173206265656e2066696e697368656400000000000000600082015250565b60006146b2601983613892565b91506146bd8261467c565b602082019050919050565b600060208201905081810360008301526146e1816146a5565b9050919050565b7f31204e465420706572206164647265737320616c6c6f77656420746f206d696e60008201527f7400000000000000000000000000000000000000000000000000000000000000602082015250565b6000614744602183613892565b915061474f826146e8565b604082019050919050565b6000602082019050818103600083015261477381614737565b9050919050565b600061478582613942565b915061479083613942565b9250827fffffffffffffffffffffffffffffffffffffffffffffffffffffffffffffffff038211156147c5576147c461439c565b5b828201905092915050565b7f6d6178204e4654206c696d697420666f722070726573616c652065786365656460008201527f6564000000000000000000000000000000000000000000000000000000000000602082015250565b600061482c602283613892565b9150614837826147d0565b604082019050919050565b6000602082019050818103600083015261485b8161481f565b9050919050565b7f6d6178204e4654207065722077686974656c697374206164647265737320657860008201527f6365656465640000000000000000000000000000000000000000000000000000602082015250565b60006148be602683613892565b91506148c982614862565b604082019050919050565b600060208201905081810360008301526148ed816148b1565b9050919050565b7f57686974656c6973743a20596f75206e65656420746f2062652077686974656c60008201527f6973746564000000000000000000000000000000000000000000000000000000602082015250565b6000614950602583613892565b915061495b826148f4565b604082019050919050565b6000602082019050818103600083015261497f81614943565b9050919050565b600061499182613942565b915061499c83613942565b9250817fffffffffffffffffffffffffffffffffffffffffffffffffffffffffffffffff04831182151516156149d5576149d461439c565b5b828202905092915050565b7f696e73756666696369656e742066756e64730000000000000000000000000000600082015250565b6000614a16601283613892565b9150614a21826149e0565b602082019050919050565b60006020820190508181036000830152614a4581614a09565b9050919050565b7f31204e465420616c6c6f77656420706572206164647265737300000000000000600082015250565b6000614a82601983613892565b9150614a8d82614a4c565b602082019050919050565b60006020820190508181036000830152614ab181614a75565b9050919050565b7f6d6178204e4654206c696d697420657863656564656400000000000000000000600082015250565b6000614aee601683613892565b9150614af982614ab8565b602082019050919050565b60006020820190508181036000830152614b1d81614ae1565b9050919050565b7f4164647265737320616c72656164792077686974656c69737465642100000000600082015250565b6000614b5a601c83613892565b9150614b6582614b24565b602082019050919050565b60006020820190508181036000830152614b8981614b4d565b9050919050565b7f50726573616c65206973206f6e00000000000000000000000000000000000000600082015250565b6000614bc6600d83613892565b9150614bd182614b90565b602082019050919050565b60006020820190508181036000830152614bf581614bb9565b9050919050565b7f6d6178206d696e7420616d6f756e74207065722073657373696f6e206578636560008201527f6564656400000000000000000000000000000000000000000000000000000000602082015250565b6000614c58602483613892565b9150614c6382614bfc565b604082019050919050565b60006020820190508181036000830152614c8781614c4b565b9050919050565b7f4552433732314d657461646174613a2055524920717565727920666f72206e6f60008201527f6e6578697374656e7420746f6b656e0000000000000000000000000000000000602082015250565b6000614cea602f83613892565b9150614cf582614c8e565b604082019050919050565b60006020820190508181036000830152614d1981614cdd565b9050919050565b600081905092915050565b6000614d3682613887565b614d408185614d20565b9350614d508185602086016138a3565b80840191505092915050565b60008190508160005260206000209050919050565b60008154614d7e81614061565b614d888186614d20565b94506001821660008114614da35760018114614db457614de7565b60ff19831686528186019350614de7565b614dbd85614d5c565b60005b83811015614ddf57815481890152600182019150602081019050614dc0565b838801955050505b50505092915050565b6000614dfc8286614d2b565b9150614e088285614d2b565b9150614e148284614d71565b9150819050949350505050565b7f4f776e61626c653a206e6577206f776e657220697320746865207a65726f206160008201527f6464726573730000000000000000000000000000000000000000000000000000602082015250565b6000614e7d602683613892565b9150614e8882614e21565b604082019050919050565b60006020820190508181036000830152614eac81614e70565b9050919050565b7f4552433732313a206f70657261746f7220717565727920666f72206e6f6e657860008201527f697374656e7420746f6b656e0000000000000000000000000000000000000000602082015250565b6000614f0f602c83613892565b9150614f1a82614eb3565b604082019050919050565b60006020820190508181036000830152614f3e81614f02565b9050919050565b7f4552433732313a207472616e736665722066726f6d20696e636f72726563742060008201527f6f776e6572000000000000000000000000000000000000000000000000000000602082015250565b6000614fa1602583613892565b9150614fac82614f45565b604082019050919050565b60006020820190508181036000830152614fd081614f94565b9050919050565b7f4552433732313a207472616e7366657220746f20746865207a65726f2061646460008201527f7265737300000000000000000000000000000000000000000000000000000000602082015250565b6000615033602483613892565b915061503e82614fd7565b604082019050919050565b6000602082019050818103600083015261506281615026565b9050919050565b600061507482613942565b915061507f83613942565b9250828210156150925761509161439c565b5b828203905092915050565b7f4552433732313a20617070726f766520746f2063616c6c657200000000000000600082015250565b60006150d3601983613892565b91506150de8261509d565b602082019050919050565b60006020820190508181036000830152615102816150c6565b9050919050565b7f4552433732313a207472616e7366657220746f206e6f6e20455243373231526560008201527f63656976657220696d706c656d656e7465720000000000000000000000000000602082015250565b6000615165603283613892565b915061517082615109565b604082019050919050565b6000602082019050818103600083015261519481615158565b9050919050565b7f4e487b7100000000000000000000000000000000000000000000000000000000600052601260045260246000fd5b60006151d582613942565b91506151e083613942565b9250826151f0576151ef61519b565b5b828204905092915050565b600061520682613942565b915061521183613942565b9250826152215761522061519b565b5b828206905092915050565b600081519050919050565b600082825260208201905092915050565b60006152538261522c565b61525d8185615237565b935061526d8185602086016138a3565b615276816138d6565b840191505092915050565b600060808201905061529660008301876139d7565b6152a360208301866139d7565b6152b06040830185613a6d565b81810360608301526152c28184615248565b905095945050505050565b6000815190506152dc8161379f565b92915050565b6000602082840312156152f8576152f7613769565b5b6000615306848285016152cd565b91505092915050565b7f4e487b7100000000000000000000000000000000000000000000000000000000600052603160045260246000fd5b7f4552433732313a206d696e7420746f20746865207a65726f2061646472657373600082015250565b6000615374602083613892565b915061537f8261533e565b602082019050919050565b600060208201905081810360008301526153a381615367565b9050919050565b7f4552433732313a20746f6b656e20616c7265616479206d696e74656400000000600082015250565b60006153e0601c83613892565b91506153eb826153aa565b602082019050919050565b6000602082019050818103600083015261540f816153d3565b905091905056fea264697066735822122029cafa992ec6fb5569db56e0f332a6fb4475f6f2ed983cb779ef4942a96a0def64736f6c634300080c0033",
  "immutableReferences": {},
  "source": "// SPDX-License-Identifier: MIT\n// File: @openzeppelin/contracts/utils/cryptography/MerkleProof.sol\n\n\n// OpenZeppelin Contracts (last updated v4.5.0) (utils/cryptography/MerkleProof.sol)\n\npragma solidity ^0.8.0;\n\n/**\n * @dev These functions deal with verification of Merkle Trees proofs.\n *\n * The proofs can be generated using the JavaScript library\n * https://github.com/miguelmota/merkletreejs[merkletreejs].\n * Note: the hashing algorithm should be keccak256 and pair sorting should be enabled.\n *\n * See `test/utils/cryptography/MerkleProof.test.js` for some examples.\n */\n\n// OpenZeppelin Contracts v4.4.1 (utils/Strings.sol)\n\npragma solidity ^0.8.0;\n\n/**\n * @dev String operations.\n */\nlibrary Strings {\n    bytes16 private constant _HEX_SYMBOLS = \"0123456789abcdef\";\n\n    /**\n     * @dev Converts a `uint256` to its ASCII `string` decimal representation.\n     */\n    function toString(uint256 value) internal pure returns (string memory) {\n        // Inspired by OraclizeAPI's implementation - MIT licence\n        // https://github.com/oraclize/ethereum-api/blob/b42146b063c7d6ee1358846c198246239e9360e8/oraclizeAPI_0.4.25.sol\n\n        if (value == 0) {\n            return \"0\";\n        }\n        uint256 temp = value;\n        uint256 digits;\n        while (temp != 0) {\n            digits++;\n            temp /= 10;\n        }\n        bytes memory buffer = new bytes(digits);\n        while (value != 0) {\n            digits -= 1;\n            buffer[digits] = bytes1(uint8(48 + uint256(value % 10)));\n            value /= 10;\n        }\n        return string(buffer);\n    }\n\n    /**\n     * @dev Converts a `uint256` to its ASCII `string` hexadecimal representation.\n     */\n    function toHexString(uint256 value) internal pure returns (string memory) {\n        if (value == 0) {\n            return \"0x00\";\n        }\n        uint256 temp = value;\n        uint256 length = 0;\n        while (temp != 0) {\n            length++;\n            temp >>= 8;\n        }\n        return toHexString(value, length);\n    }\n\n    /**\n     * @dev Converts a `uint256` to its ASCII `string` hexadecimal representation with fixed length.\n     */\n    function toHexString(uint256 value, uint256 length) internal pure returns (string memory) {\n        bytes memory buffer = new bytes(2 * length + 2);\n        buffer[0] = \"0\";\n        buffer[1] = \"x\";\n        for (uint256 i = 2 * length + 1; i > 1; --i) {\n            buffer[i] = _HEX_SYMBOLS[value & 0xf];\n            value >>= 4;\n        }\n        require(value == 0, \"Strings: hex length insufficient\");\n        return string(buffer);\n    }\n}\n\nlibrary SafeMath {\n    /**\n     * @dev Returns the addition of two unsigned integers, with an overflow flag.\n     *\n     * _Available since v3.4._\n     */\n    function tryAdd(uint256 a, uint256 b) internal pure returns (bool, uint256) {\n        unchecked {\n            uint256 c = a + b;\n            if (c < a) return (false, 0);\n            return (true, c);\n        }\n    }\n\n    /**\n     * @dev Returns the substraction of two unsigned integers, with an overflow flag.\n     *\n     * _Available since v3.4._\n     */\n    function trySub(uint256 a, uint256 b) internal pure returns (bool, uint256) {\n        unchecked {\n            if (b > a) return (false, 0);\n            return (true, a - b);\n        }\n    }\n\n    /**\n     * @dev Returns the multiplication of two unsigned integers, with an overflow flag.\n     *\n     * _Available since v3.4._\n     */\n    function tryMul(uint256 a, uint256 b) internal pure returns (bool, uint256) {\n        unchecked {\n            // Gas optimization: this is cheaper than requiring 'a' not being zero, but the\n            // benefit is lost if 'b' is also tested.\n            // See: https://github.com/OpenZeppelin/openzeppelin-contracts/pull/522\n            if (a == 0) return (true, 0);\n            uint256 c = a * b;\n            if (c / a != b) return (false, 0);\n            return (true, c);\n        }\n    }\n\n    /**\n     * @dev Returns the division of two unsigned integers, with a division by zero flag.\n     *\n     * _Available since v3.4._\n     */\n    function tryDiv(uint256 a, uint256 b) internal pure returns (bool, uint256) {\n        unchecked {\n            if (b == 0) return (false, 0);\n            return (true, a / b);\n        }\n    }\n\n    /**\n     * @dev Returns the remainder of dividing two unsigned integers, with a division by zero flag.\n     *\n     * _Available since v3.4._\n     */\n    function tryMod(uint256 a, uint256 b) internal pure returns (bool, uint256) {\n        unchecked {\n            if (b == 0) return (false, 0);\n            return (true, a % b);\n        }\n    }\n\n    /**\n     * @dev Returns the addition of two unsigned integers, reverting on\n     * overflow.\n     *\n     * Counterpart to Solidity's `+` operator.\n     *\n     * Requirements:\n     *\n     * - Addition cannot overflow.\n     */\n    function add(uint256 a, uint256 b) internal pure returns (uint256) {\n        return a + b;\n    }\n\n    /**\n     * @dev Returns the subtraction of two unsigned integers, reverting on\n     * overflow (when the result is negative).\n     *\n     * Counterpart to Solidity's `-` operator.\n     *\n     * Requirements:\n     *\n     * - Subtraction cannot overflow.\n     */\n    function sub(uint256 a, uint256 b) internal pure returns (uint256) {\n        return a - b;\n    }\n\n    /**\n     * @dev Returns the multiplication of two unsigned integers, reverting on\n     * overflow.\n     *\n     * Counterpart to Solidity's `*` operator.\n     *\n     * Requirements:\n     *\n     * - Multiplication cannot overflow.\n     */\n    function mul(uint256 a, uint256 b) internal pure returns (uint256) {\n        return a * b;\n    }\n\n    /**\n     * @dev Returns the integer division of two unsigned integers, reverting on\n     * division by zero. The result is rounded towards zero.\n     *\n     * Counterpart to Solidity's `/` operator.\n     *\n     * Requirements:\n     *\n     * - The divisor cannot be zero.\n     */\n    function div(uint256 a, uint256 b) internal pure returns (uint256) {\n        return a / b;\n    }\n\n    /**\n     * @dev Returns the remainder of dividing two unsigned integers. (unsigned integer modulo),\n     * reverting when dividing by zero.\n     *\n     * Counterpart to Solidity's `%` operator. This function uses a `revert`\n     * opcode (which leaves remaining gas untouched) while Solidity uses an\n     * invalid opcode to revert (consuming all remaining gas).\n     *\n     * Requirements:\n     *\n     * - The divisor cannot be zero.\n     */\n    function mod(uint256 a, uint256 b) internal pure returns (uint256) {\n        return a % b;\n    }\n\n    /**\n     * @dev Returns the subtraction of two unsigned integers, reverting with custom message on\n     * overflow (when the result is negative).\n     *\n     * CAUTION: This function is deprecated because it requires allocating memory for the error\n     * message unnecessarily. For custom revert reasons use {trySub}.\n     *\n     * Counterpart to Solidity's `-` operator.\n     *\n     * Requirements:\n     *\n     * - Subtraction cannot overflow.\n     */\n    function sub(\n        uint256 a,\n        uint256 b,\n        string memory errorMessage\n    ) internal pure returns (uint256) {\n        unchecked {\n            require(b <= a, errorMessage);\n            return a - b;\n        }\n    }\n\n    /**\n     * @dev Returns the integer division of two unsigned integers, reverting with custom message on\n     * division by zero. The result is rounded towards zero.\n     *\n     * Counterpart to Solidity's `/` operator. Note: this function uses a\n     * `revert` opcode (which leaves remaining gas untouched) while Solidity\n     * uses an invalid opcode to revert (consuming all remaining gas).\n     *\n     * Requirements:\n     *\n     * - The divisor cannot be zero.\n     */\n    function div(\n        uint256 a,\n        uint256 b,\n        string memory errorMessage\n    ) internal pure returns (uint256) {\n        unchecked {\n            require(b > 0, errorMessage);\n            return a / b;\n        }\n    }\n\n    /**\n     * @dev Returns the remainder of dividing two unsigned integers. (unsigned integer modulo),\n     * reverting with custom message when dividing by zero.\n     *\n     * CAUTION: This function is deprecated because it requires allocating memory for the error\n     * message unnecessarily. For custom revert reasons use {tryMod}.\n     *\n     * Counterpart to Solidity's `%` operator. This function uses a `revert`\n     * opcode (which leaves remaining gas untouched) while Solidity uses an\n     * invalid opcode to revert (consuming all remaining gas).\n     *\n     * Requirements:\n     *\n     * - The divisor cannot be zero.\n     */\n    function mod(\n        uint256 a,\n        uint256 b,\n        string memory errorMessage\n    ) internal pure returns (uint256) {\n        unchecked {\n            require(b > 0, errorMessage);\n            return a % b;\n        }\n    }\n}\n\n\n\n// File: @openzeppelin/contracts/utils/Context.sol\n\n\n// OpenZeppelin Contracts v4.4.1 (utils/Context.sol)\n\npragma solidity ^0.8.0;\n\n/**\n * @dev Provides information about the current execution context, including the\n * sender of the transaction and its data. While these are generally available\n * via msg.sender and msg.data, they should not be accessed in such a direct\n * manner, since when dealing with meta-transactions the account sending and\n * paying for execution may not be the actual sender (as far as an application\n * is concerned).\n *\n * This contract is only required for intermediate, library-like contracts.\n */\nabstract contract Context {\n    function _msgSender() internal view virtual returns (address) {\n        return msg.sender;\n    }\n\n    function _msgData() internal view virtual returns (bytes calldata) {\n        return msg.data;\n    }\n}\n\n// File: @openzeppelin/contracts/access/Ownable.sol\n\n\n// OpenZeppelin Contracts v4.4.1 (access/Ownable.sol)\n\npragma solidity ^0.8.0;\n\n\n/**\n * @dev Contract module which provides a basic access control mechanism, where\n * there is an account (an owner) that can be granted exclusive access to\n * specific functions.\n *\n * By default, the owner account will be the one that deploys the contract. This\n * can later be changed with {transferOwnership}.\n *\n * This module is used through inheritance. It will make available the modifier\n * `onlyOwner`, which can be applied to your functions to restrict their use to\n * the owner.\n */\nabstract contract Ownable is Context {\n    address private _owner;\n\n    event OwnershipTransferred(address indexed previousOwner, address indexed newOwner);\n\n    /**\n     * @dev Initializes the contract setting the deployer as the initial owner.\n     */\n    constructor() {\n        _transferOwnership(_msgSender());\n    }\n\n    /**\n     * @dev Returns the address of the current owner.\n     */\n    function owner() public view virtual returns (address) {\n        return _owner;\n    }\n\n    /**\n     * @dev Throws if called by any account other than the owner.\n     */\n    modifier onlyOwner() {\n        require(owner() == _msgSender(), \"Ownable: caller is not the owner\");\n        _;\n    }\n\n    /**\n     * @dev Leaves the contract without owner. It will not be possible to call\n     * `onlyOwner` functions anymore. Can only be called by the current owner.\n     *\n     * NOTE: Renouncing ownership will leave the contract without an owner,\n     * thereby removing any functionality that is only available to the owner.\n     */\n    function renounceOwnership() public virtual onlyOwner {\n        _transferOwnership(address(0));\n    }\n\n    /**\n     * @dev Transfers ownership of the contract to a new account (`newOwner`).\n     * Can only be called by the current owner.\n     */\n    function transferOwnership(address newOwner) public virtual onlyOwner {\n        require(newOwner != address(0), \"Ownable: new owner is the zero address\");\n        _transferOwnership(newOwner);\n    }\n\n    /**\n     * @dev Transfers ownership of the contract to a new account (`newOwner`).\n     * Internal function without access restriction.\n     */\n    function _transferOwnership(address newOwner) internal virtual {\n        address oldOwner = _owner;\n        _owner = newOwner;\n        emit OwnershipTransferred(oldOwner, newOwner);\n    }\n}\n\n// File: @openzeppelin/contracts/utils/Address.sol\n\n\n// OpenZeppelin Contracts (last updated v4.5.0) (utils/Address.sol)\n\npragma solidity ^0.8.1;\n\n/**\n * @dev Collection of functions related to the address type\n */\nlibrary Address {\n    /**\n     * @dev Returns true if `account` is a contract.\n     *\n     * [IMPORTANT]\n     * ====\n     * It is unsafe to assume that an address for which this function returns\n     * false is an externally-owned account (EOA) and not a contract.\n     *\n     * Among others, `isContract` will return false for the following\n     * types of addresses:\n     *\n     *  - an externally-owned account\n     *  - a contract in construction\n     *  - an address where a contract will be created\n     *  - an address where a contract lived, but was destroyed\n     * ====\n     *\n     * [IMPORTANT]\n     * ====\n     * You shouldn't rely on `isContract` to protect against flash loan attacks!\n     *\n     * Preventing calls from contracts is highly discouraged. It breaks composability, breaks support for smart wallets\n     * like Gnosis Safe, and does not provide security since it can be circumvented by calling from a contract\n     * constructor.\n     * ====\n     */\n    function isContract(address account) internal view returns (bool) {\n        // This method relies on extcodesize/address.code.length, which returns 0\n        // for contracts in construction, since the code is only stored at the end\n        // of the constructor execution.\n\n        return account.code.length > 0;\n    }\n\n    /**\n     * @dev Replacement for Solidity's `transfer`: sends `amount` wei to\n     * `recipient`, forwarding all available gas and reverting on errors.\n     *\n     * https://eips.ethereum.org/EIPS/eip-1884[EIP1884] increases the gas cost\n     * of certain opcodes, possibly making contracts go over the 2300 gas limit\n     * imposed by `transfer`, making them unable to receive funds via\n     * `transfer`. {sendValue} removes this limitation.\n     *\n     * https://diligence.consensys.net/posts/2019/09/stop-using-soliditys-transfer-now/[Learn more].\n     *\n     * IMPORTANT: because control is transferred to `recipient`, care must be\n     * taken to not create reentrancy vulnerabilities. Consider using\n     * {ReentrancyGuard} or the\n     * https://solidity.readthedocs.io/en/v0.5.11/security-considerations.html#use-the-checks-effects-interactions-pattern[checks-effects-interactions pattern].\n     */\n    function sendValue(address payable recipient, uint256 amount) internal {\n        require(address(this).balance >= amount, \"Address: insufficient balance\");\n\n        (bool success, ) = recipient.call{value: amount}(\"\");\n        require(success, \"Address: unable to send value, recipient may have reverted\");\n    }\n\n    /**\n     * @dev Performs a Solidity function call using a low level `call`. A\n     * plain `call` is an unsafe replacement for a function call: use this\n     * function instead.\n     *\n     * If `target` reverts with a revert reason, it is bubbled up by this\n     * function (like regular Solidity function calls).\n     *\n     * Returns the raw returned data. To convert to the expected return value,\n     * use https://solidity.readthedocs.io/en/latest/units-and-global-variables.html?highlight=abi.decode#abi-encoding-and-decoding-functions[`abi.decode`].\n     *\n     * Requirements:\n     *\n     * - `target` must be a contract.\n     * - calling `target` with `data` must not revert.\n     *\n     * _Available since v3.1._\n     */\n    function functionCall(address target, bytes memory data) internal returns (bytes memory) {\n        return functionCall(target, data, \"Address: low-level call failed\");\n    }\n\n    /**\n     * @dev Same as {xref-Address-functionCall-address-bytes-}[`functionCall`], but with\n     * `errorMessage` as a fallback revert reason when `target` reverts.\n     *\n     * _Available since v3.1._\n     */\n    function functionCall(\n        address target,\n        bytes memory data,\n        string memory errorMessage\n    ) internal returns (bytes memory) {\n        return functionCallWithValue(target, data, 0, errorMessage);\n    }\n\n    /**\n     * @dev Same as {xref-Address-functionCall-address-bytes-}[`functionCall`],\n     * but also transferring `value` wei to `target`.\n     *\n     * Requirements:\n     *\n     * - the calling contract must have an ETH balance of at least `value`.\n     * - the called Solidity function must be `payable`.\n     *\n     * _Available since v3.1._\n     */\n    function functionCallWithValue(\n        address target,\n        bytes memory data,\n        uint256 value\n    ) internal returns (bytes memory) {\n        return functionCallWithValue(target, data, value, \"Address: low-level call with value failed\");\n    }\n\n    /**\n     * @dev Same as {xref-Address-functionCallWithValue-address-bytes-uint256-}[`functionCallWithValue`], but\n     * with `errorMessage` as a fallback revert reason when `target` reverts.\n     *\n     * _Available since v3.1._\n     */\n    function functionCallWithValue(\n        address target,\n        bytes memory data,\n        uint256 value,\n        string memory errorMessage\n    ) internal returns (bytes memory) {\n        require(address(this).balance >= value, \"Address: insufficient balance for call\");\n        require(isContract(target), \"Address: call to non-contract\");\n\n        (bool success, bytes memory returndata) = target.call{value: value}(data);\n        return verifyCallResult(success, returndata, errorMessage);\n    }\n\n    /**\n     * @dev Same as {xref-Address-functionCall-address-bytes-}[`functionCall`],\n     * but performing a static call.\n     *\n     * _Available since v3.3._\n     */\n    function functionStaticCall(address target, bytes memory data) internal view returns (bytes memory) {\n        return functionStaticCall(target, data, \"Address: low-level static call failed\");\n    }\n\n    /**\n     * @dev Same as {xref-Address-functionCall-address-bytes-string-}[`functionCall`],\n     * but performing a static call.\n     *\n     * _Available since v3.3._\n     */\n    function functionStaticCall(\n        address target,\n        bytes memory data,\n        string memory errorMessage\n    ) internal view returns (bytes memory) {\n        require(isContract(target), \"Address: static call to non-contract\");\n\n        (bool success, bytes memory returndata) = target.staticcall(data);\n        return verifyCallResult(success, returndata, errorMessage);\n    }\n\n    /**\n     * @dev Same as {xref-Address-functionCall-address-bytes-}[`functionCall`],\n     * but performing a delegate call.\n     *\n     * _Available since v3.4._\n     */\n    function functionDelegateCall(address target, bytes memory data) internal returns (bytes memory) {\n        return functionDelegateCall(target, data, \"Address: low-level delegate call failed\");\n    }\n\n    /**\n     * @dev Same as {xref-Address-functionCall-address-bytes-string-}[`functionCall`],\n     * but performing a delegate call.\n     *\n     * _Available since v3.4._\n     */\n    function functionDelegateCall(\n        address target,\n        bytes memory data,\n        string memory errorMessage\n    ) internal returns (bytes memory) {\n        require(isContract(target), \"Address: delegate call to non-contract\");\n\n        (bool success, bytes memory returndata) = target.delegatecall(data);\n        return verifyCallResult(success, returndata, errorMessage);\n    }\n\n    /**\n     * @dev Tool to verifies that a low level call was successful, and revert if it wasn't, either by bubbling the\n     * revert reason using the provided one.\n     *\n     * _Available since v4.3._\n     */\n    function verifyCallResult(\n        bool success,\n        bytes memory returndata,\n        string memory errorMessage\n    ) internal pure returns (bytes memory) {\n        if (success) {\n            return returndata;\n        } else {\n            // Look for revert reason and bubble it up if present\n            if (returndata.length > 0) {\n                // The easiest way to bubble the revert reason is using memory via assembly\n\n                assembly {\n                    let returndata_size := mload(returndata)\n                    revert(add(32, returndata), returndata_size)\n                }\n            } else {\n                revert(errorMessage);\n            }\n        }\n    }\n}\n\n// File: @openzeppelin/contracts/token/ERC721/IERC721Receiver.sol\n\n\n// OpenZeppelin Contracts v4.4.1 (token/ERC721/IERC721Receiver.sol)\n\npragma solidity ^0.8.0;\n\n/**\n * @title ERC721 token receiver interface\n * @dev Interface for any contract that wants to support safeTransfers\n * from ERC721 asset contracts.\n */\ninterface IERC721Receiver {\n    /**\n     * @dev Whenever an {IERC721} `tokenId` token is transferred to this contract via {IERC721-safeTransferFrom}\n     * by `operator` from `from`, this function is called.\n     *\n     * It must return its Solidity selector to confirm the token transfer.\n     * If any other value is returned or the interface is not implemented by the recipient, the transfer will be reverted.\n     *\n     * The selector can be obtained in Solidity with `IERC721.onERC721Received.selector`.\n     */\n    function onERC721Received(\n        address operator,\n        address from,\n        uint256 tokenId,\n        bytes calldata data\n    ) external returns (bytes4);\n}\n\n// File: @openzeppelin/contracts/utils/introspection/IERC165.sol\n\n\n// OpenZeppelin Contracts v4.4.1 (utils/introspection/IERC165.sol)\n\npragma solidity ^0.8.0;\n\n/**\n * @dev Interface of the ERC165 standard, as defined in the\n * https://eips.ethereum.org/EIPS/eip-165[EIP].\n *\n * Implementers can declare support of contract interfaces, which can then be\n * queried by others ({ERC165Checker}).\n *\n * For an implementation, see {ERC165}.\n */\ninterface IERC165 {\n    /**\n     * @dev Returns true if this contract implements the interface defined by\n     * `interfaceId`. See the corresponding\n     * https://eips.ethereum.org/EIPS/eip-165#how-interfaces-are-identified[EIP section]\n     * to learn more about how these ids are created.\n     *\n     * This function call must use less than 30 000 gas.\n     */\n    function supportsInterface(bytes4 interfaceId) external view returns (bool);\n}\n\n// File: @openzeppelin/contracts/utils/introspection/ERC165.sol\n\n\n// OpenZeppelin Contracts v4.4.1 (utils/introspection/ERC165.sol)\n\npragma solidity ^0.8.0;\n\n\n/**\n * @dev Implementation of the {IERC165} interface.\n *\n * Contracts that want to implement ERC165 should inherit from this contract and override {supportsInterface} to check\n * for the additional interface id that will be supported. For example:\n *\n * ```solidity\n * function supportsInterface(bytes4 interfaceId) public view virtual override returns (bool) {\n *     return interfaceId == type(MyInterface).interfaceId || super.supportsInterface(interfaceId);\n * }\n * ```\n *\n * Alternatively, {ERC165Storage} provides an easier to use but more expensive implementation.\n */\nabstract contract ERC165 is IERC165 {\n    /**\n     * @dev See {IERC165-supportsInterface}.\n     */\n    function supportsInterface(bytes4 interfaceId) public view virtual override returns (bool) {\n        return interfaceId == type(IERC165).interfaceId;\n    }\n}\n\n// File: @openzeppelin/contracts/token/ERC721/IERC721.sol\n\n\n// OpenZeppelin Contracts v4.4.1 (token/ERC721/IERC721.sol)\n\npragma solidity ^0.8.0;\n\n\n/**\n * @dev Required interface of an ERC721 compliant contract.\n */\ninterface IERC721 is IERC165 {\n    /**\n     * @dev Emitted when `tokenId` token is transferred from `from` to `to`.\n     */\n    event Transfer(address indexed from, address indexed to, uint256 indexed tokenId);\n\n    /**\n     * @dev Emitted when `owner` enables `approved` to manage the `tokenId` token.\n     */\n    event Approval(address indexed owner, address indexed approved, uint256 indexed tokenId);\n\n    /**\n     * @dev Emitted when `owner` enables or disables (`approved`) `operator` to manage all of its assets.\n     */\n    event ApprovalForAll(address indexed owner, address indexed operator, bool approved);\n\n    /**\n     * @dev Returns the number of tokens in ``owner``'s account.\n     */\n    function balanceOf(address owner) external view returns (uint256 balance);\n\n    /**\n     * @dev Returns the owner of the `tokenId` token.\n     *\n     * Requirements:\n     *\n     * - `tokenId` must exist.\n     */\n    function ownerOf(uint256 tokenId) external view returns (address owner);\n\n    /**\n     * @dev Safely transfers `tokenId` token from `from` to `to`, checking first that contract recipients\n     * are aware of the ERC721 protocol to prevent tokens from being forever locked.\n     *\n     * Requirements:\n     *\n     * - `from` cannot be the zero address.\n     * - `to` cannot be the zero address.\n     * - `tokenId` token must exist and be owned by `from`.\n     * - If the caller is not `from`, it must be have been allowed to move this token by either {approve} or {setApprovalForAll}.\n     * - If `to` refers to a smart contract, it must implement {IERC721Receiver-onERC721Received}, which is called upon a safe transfer.\n     *\n     * Emits a {Transfer} event.\n     */\n    function safeTransferFrom(\n        address from,\n        address to,\n        uint256 tokenId\n    ) external;\n\n    /**\n     * @dev Transfers `tokenId` token from `from` to `to`.\n     *\n     * WARNING: Usage of this method is discouraged, use {safeTransferFrom} whenever possible.\n     *\n     * Requirements:\n     *\n     * - `from` cannot be the zero address.\n     * - `to` cannot be the zero address.\n     * - `tokenId` token must be owned by `from`.\n     * - If the caller is not `from`, it must be approved to move this token by either {approve} or {setApprovalForAll}.\n     *\n     * Emits a {Transfer} event.\n     */\n    function transferFrom(\n        address from,\n        address to,\n        uint256 tokenId\n    ) external;\n\n    /**\n     * @dev Gives permission to `to` to transfer `tokenId` token to another account.\n     * The approval is cleared when the token is transferred.\n     *\n     * Only a single account can be approved at a time, so approving the zero address clears previous approvals.\n     *\n     * Requirements:\n     *\n     * - The caller must own the token or be an approved operator.\n     * - `tokenId` must exist.\n     *\n     * Emits an {Approval} event.\n     */\n    function approve(address to, uint256 tokenId) external;\n\n    /**\n     * @dev Returns the account approved for `tokenId` token.\n     *\n     * Requirements:\n     *\n     * - `tokenId` must exist.\n     */\n    function getApproved(uint256 tokenId) external view returns (address operator);\n\n    /**\n     * @dev Approve or remove `operator` as an operator for the caller.\n     * Operators can call {transferFrom} or {safeTransferFrom} for any token owned by the caller.\n     *\n     * Requirements:\n     *\n     * - The `operator` cannot be the caller.\n     *\n     * Emits an {ApprovalForAll} event.\n     */\n    function setApprovalForAll(address operator, bool _approved) external;\n\n    /**\n     * @dev Returns if the `operator` is allowed to manage all of the assets of `owner`.\n     *\n     * See {setApprovalForAll}\n     */\n    function isApprovedForAll(address owner, address operator) external view returns (bool);\n\n    /**\n     * @dev Safely transfers `tokenId` token from `from` to `to`.\n     *\n     * Requirements:\n     *\n     * - `from` cannot be the zero address.\n     * - `to` cannot be the zero address.\n     * - `tokenId` token must exist and be owned by `from`.\n     * - If the caller is not `from`, it must be approved to move this token by either {approve} or {setApprovalForAll}.\n     * - If `to` refers to a smart contract, it must implement {IERC721Receiver-onERC721Received}, which is called upon a safe transfer.\n     *\n     * Emits a {Transfer} event.\n     */\n    function safeTransferFrom(\n        address from,\n        address to,\n        uint256 tokenId,\n        bytes calldata data\n    ) external;\n}\n\n// File: @openzeppelin/contracts/token/ERC721/extensions/IERC721Enumerable.sol\n\n\n// OpenZeppelin Contracts (last updated v4.5.0) (token/ERC721/extensions/IERC721Enumerable.sol)\n\npragma solidity ^0.8.0;\n\n\n/**\n * @title ERC-721 Non-Fungible Token Standard, optional enumeration extension\n * @dev See https://eips.ethereum.org/EIPS/eip-721\n */\ninterface IERC721Enumerable is IERC721 {\n    /**\n     * @dev Returns the total amount of tokens stored by the contract.\n     */\n    function totalSupply() external view returns (uint256);\n\n    /**\n     * @dev Returns a token ID owned by `owner` at a given `index` of its token list.\n     * Use along with {balanceOf} to enumerate all of ``owner``'s tokens.\n     */\n    function tokenOfOwnerByIndex(address owner, uint256 index) external view returns (uint256);\n\n    /**\n     * @dev Returns a token ID at a given `index` of all the tokens stored by the contract.\n     * Use along with {totalSupply} to enumerate all tokens.\n     */\n    function tokenByIndex(uint256 index) external view returns (uint256);\n}\n\n// File: @openzeppelin/contracts/token/ERC721/extensions/IERC721Metadata.sol\n\n\n// OpenZeppelin Contracts v4.4.1 (token/ERC721/extensions/IERC721Metadata.sol)\n\npragma solidity ^0.8.0;\n\n\n/**\n * @title ERC-721 Non-Fungible Token Standard, optional metadata extension\n * @dev See https://eips.ethereum.org/EIPS/eip-721\n */\ninterface IERC721Metadata is IERC721 {\n    /**\n     * @dev Returns the token collection name.\n     */\n    function name() external view returns (string memory);\n\n    /**\n     * @dev Returns the token collection symbol.\n     */\n    function symbol() external view returns (string memory);\n\n    /**\n     * @dev Returns the Uniform Resource Identifier (URI) for `tokenId` token.\n     */\n    function tokenURI(uint256 tokenId) external view returns (string memory);\n}\n\n// File: @openzeppelin/contracts/token/ERC721/ERC721.sol\n\n\n// OpenZeppelin Contracts (last updated v4.5.0) (token/ERC721/ERC721.sol)\n\npragma solidity ^0.8.0;\n\n\n\n\n\n\n\n\n/**\n * @dev Implementation of https://eips.ethereum.org/EIPS/eip-721[ERC721] Non-Fungible Token Standard, including\n * the Metadata extension, but not including the Enumerable extension, which is available separately as\n * {ERC721Enumerable}.\n */\ncontract ERC721 is Context, ERC165, IERC721, IERC721Metadata {\n    using Address for address;\n    using Strings for uint256;\n\n    // Token name\n    string private _name;\n\n    // Token symbol\n    string private _symbol;\n\n    // Mapping from token ID to owner address\n    mapping(uint256 => address) private _owners;\n\n    // Mapping owner address to token count\n    mapping(address => uint256) private _balances;\n\n    // Mapping from token ID to approved address\n    mapping(uint256 => address) private _tokenApprovals;\n\n    // Mapping from owner to operator approvals\n    mapping(address => mapping(address => bool)) private _operatorApprovals;\n\n    /**\n     * @dev Initializes the contract by setting a `name` and a `symbol` to the token collection.\n     */\n    constructor(string memory name_, string memory symbol_) {\n        _name = name_;\n        _symbol = symbol_;\n    }\n\n    /**\n     * @dev See {IERC165-supportsInterface}.\n     */\n    function supportsInterface(bytes4 interfaceId) public view virtual override(ERC165, IERC165) returns (bool) {\n        return\n            interfaceId == type(IERC721).interfaceId ||\n            interfaceId == type(IERC721Metadata).interfaceId ||\n            super.supportsInterface(interfaceId);\n    }\n\n    /**\n     * @dev See {IERC721-balanceOf}.\n     */\n    function balanceOf(address owner) public view virtual override returns (uint256) {\n        require(owner != address(0), \"ERC721: balance query for the zero address\");\n        return _balances[owner];\n    }\n\n    /**\n     * @dev See {IERC721-ownerOf}.\n     */\n    function ownerOf(uint256 tokenId) public view virtual override returns (address) {\n        address owner = _owners[tokenId];\n        require(owner != address(0), \"ERC721: owner query for nonexistent token\");\n        return owner;\n    }\n\n    /**\n     * @dev See {IERC721Metadata-name}.\n     */\n    function name() public view virtual override returns (string memory) {\n        return _name;\n    }\n\n    /**\n     * @dev See {IERC721Metadata-symbol}.\n     */\n    function symbol() public view virtual override returns (string memory) {\n        return _symbol;\n    }\n\n    /**\n     * @dev See {IERC721Metadata-tokenURI}.\n     */\n    function tokenURI(uint256 tokenId) public view virtual override returns (string memory) {\n        require(_exists(tokenId), \"ERC721Metadata: URI query for nonexistent token\");\n\n        string memory baseURI = _baseURI();\n        return bytes(baseURI).length > 0 ? string(abi.encodePacked(baseURI, tokenId.toString())) : \"\";\n    }\n\n    /**\n     * @dev Base URI for computing {tokenURI}. If set, the resulting URI for each\n     * token will be the concatenation of the `baseURI` and the `tokenId`. Empty\n     * by default, can be overriden in child contracts.\n     */\n    function _baseURI() internal view virtual returns (string memory) {\n        return \"\";\n    }\n\n    /**\n     * @dev See {IERC721-approve}.\n     */\n    function approve(address to, uint256 tokenId) public virtual override {\n        address owner = ERC721.ownerOf(tokenId);\n        require(to != owner, \"ERC721: approval to current owner\");\n\n        require(\n            _msgSender() == owner || isApprovedForAll(owner, _msgSender()),\n            \"ERC721: approve caller is not owner nor approved for all\"\n        );\n\n        _approve(to, tokenId);\n    }\n\n    /**\n     * @dev See {IERC721-getApproved}.\n     */\n    function getApproved(uint256 tokenId) public view virtual override returns (address) {\n        require(_exists(tokenId), \"ERC721: approved query for nonexistent token\");\n\n        return _tokenApprovals[tokenId];\n    }\n\n    /**\n     * @dev See {IERC721-setApprovalForAll}.\n     */\n    function setApprovalForAll(address operator, bool approved) public virtual override {\n        _setApprovalForAll(_msgSender(), operator, approved);\n    }\n\n    /**\n     * @dev See {IERC721-isApprovedForAll}.\n     */\n    function isApprovedForAll(address owner, address operator) public view virtual override returns (bool) {\n        return _operatorApprovals[owner][operator];\n    }\n\n    /**\n     * @dev See {IERC721-transferFrom}.\n     */\n    function transferFrom(\n        address from,\n        address to,\n        uint256 tokenId\n    ) public virtual override {\n        //solhint-disable-next-line max-line-length\n        require(_isApprovedOrOwner(_msgSender(), tokenId), \"ERC721: transfer caller is not owner nor approved\");\n\n        _transfer(from, to, tokenId);\n    }\n\n    /**\n     * @dev See {IERC721-safeTransferFrom}.\n     */\n    function safeTransferFrom(\n        address from,\n        address to,\n        uint256 tokenId\n    ) public virtual override {\n        safeTransferFrom(from, to, tokenId, \"\");\n    }\n\n    /**\n     * @dev See {IERC721-safeTransferFrom}.\n     */\n    function safeTransferFrom(\n        address from,\n        address to,\n        uint256 tokenId,\n        bytes memory _data\n    ) public virtual override {\n        require(_isApprovedOrOwner(_msgSender(), tokenId), \"ERC721: transfer caller is not owner nor approved\");\n        _safeTransfer(from, to, tokenId, _data);\n    }\n\n    /**\n     * @dev Safely transfers `tokenId` token from `from` to `to`, checking first that contract recipients\n     * are aware of the ERC721 protocol to prevent tokens from being forever locked.\n     *\n     * `_data` is additional data, it has no specified format and it is sent in call to `to`.\n     *\n     * This internal function is equivalent to {safeTransferFrom}, and can be used to e.g.\n     * implement alternative mechanisms to perform token transfer, such as signature-based.\n     *\n     * Requirements:\n     *\n     * - `from` cannot be the zero address.\n     * - `to` cannot be the zero address.\n     * - `tokenId` token must exist and be owned by `from`.\n     * - If `to` refers to a smart contract, it must implement {IERC721Receiver-onERC721Received}, which is called upon a safe transfer.\n     *\n     * Emits a {Transfer} event.\n     */\n    function _safeTransfer(\n        address from,\n        address to,\n        uint256 tokenId,\n        bytes memory _data\n    ) internal virtual {\n        _transfer(from, to, tokenId);\n        require(_checkOnERC721Received(from, to, tokenId, _data), \"ERC721: transfer to non ERC721Receiver implementer\");\n    }\n\n    /**\n     * @dev Returns whether `tokenId` exists.\n     *\n     * Tokens can be managed by their owner or approved accounts via {approve} or {setApprovalForAll}.\n     *\n     * Tokens start existing when they are minted (`_mint`),\n     * and stop existing when they are burned (`_burn`).\n     */\n    function _exists(uint256 tokenId) internal view virtual returns (bool) {\n        return _owners[tokenId] != address(0);\n    }\n\n    /**\n     * @dev Returns whether `spender` is allowed to manage `tokenId`.\n     *\n     * Requirements:\n     *\n     * - `tokenId` must exist.\n     */\n    function _isApprovedOrOwner(address spender, uint256 tokenId) internal view virtual returns (bool) {\n        require(_exists(tokenId), \"ERC721: operator query for nonexistent token\");\n        address owner = ERC721.ownerOf(tokenId);\n        return (spender == owner || getApproved(tokenId) == spender || isApprovedForAll(owner, spender));\n    }\n\n    /**\n     * @dev Safely mints `tokenId` and transfers it to `to`.\n     *\n     * Requirements:\n     *\n     * - `tokenId` must not exist.\n     * - If `to` refers to a smart contract, it must implement {IERC721Receiver-onERC721Received}, which is called upon a safe transfer.\n     *\n     * Emits a {Transfer} event.\n     */\n    function _safeMint(address to, uint256 tokenId) internal virtual {\n        _safeMint(to, tokenId, \"\");\n    }\n\n    /**\n     * @dev Same as {xref-ERC721-_safeMint-address-uint256-}[`_safeMint`], with an additional `data` parameter which is\n     * forwarded in {IERC721Receiver-onERC721Received} to contract recipients.\n     */\n    function _safeMint(\n        address to,\n        uint256 tokenId,\n        bytes memory _data\n    ) internal virtual {\n        _mint(to, tokenId);\n        require(\n            _checkOnERC721Received(address(0), to, tokenId, _data),\n            \"ERC721: transfer to non ERC721Receiver implementer\"\n        );\n    }\n\n    /**\n     * @dev Mints `tokenId` and transfers it to `to`.\n     *\n     * WARNING: Usage of this method is discouraged, use {_safeMint} whenever possible\n     *\n     * Requirements:\n     *\n     * - `tokenId` must not exist.\n     * - `to` cannot be the zero address.\n     *\n     * Emits a {Transfer} event.\n     */\n    function _mint(address to, uint256 tokenId) internal virtual {\n        require(to != address(0), \"ERC721: mint to the zero address\");\n        require(!_exists(tokenId), \"ERC721: token already minted\");\n\n        _beforeTokenTransfer(address(0), to, tokenId);\n\n        _balances[to] += 1;\n        _owners[tokenId] = to;\n\n        emit Transfer(address(0), to, tokenId);\n\n        _afterTokenTransfer(address(0), to, tokenId);\n    }\n\n    /**\n     * @dev Destroys `tokenId`.\n     * The approval is cleared when the token is burned.\n     *\n     * Requirements:\n     *\n     * - `tokenId` must exist.\n     *\n     * Emits a {Transfer} event.\n     */\n    function _burn(uint256 tokenId) internal virtual {\n        address owner = ERC721.ownerOf(tokenId);\n\n        _beforeTokenTransfer(owner, address(0), tokenId);\n\n        // Clear approvals\n        _approve(address(0), tokenId);\n\n        _balances[owner] -= 1;\n        delete _owners[tokenId];\n\n        emit Transfer(owner, address(0), tokenId);\n\n        _afterTokenTransfer(owner, address(0), tokenId);\n    }\n\n    /**\n     * @dev Transfers `tokenId` from `from` to `to`.\n     *  As opposed to {transferFrom}, this imposes no restrictions on msg.sender.\n     *\n     * Requirements:\n     *\n     * - `to` cannot be the zero address.\n     * - `tokenId` token must be owned by `from`.\n     *\n     * Emits a {Transfer} event.\n     */\n    function _transfer(\n        address from,\n        address to,\n        uint256 tokenId\n    ) internal virtual {\n        require(ERC721.ownerOf(tokenId) == from, \"ERC721: transfer from incorrect owner\");\n        require(to != address(0), \"ERC721: transfer to the zero address\");\n\n        _beforeTokenTransfer(from, to, tokenId);\n\n        // Clear approvals from the previous owner\n        _approve(address(0), tokenId);\n\n        _balances[from] -= 1;\n        _balances[to] += 1;\n        _owners[tokenId] = to;\n\n        emit Transfer(from, to, tokenId);\n\n        _afterTokenTransfer(from, to, tokenId);\n    }\n\n    /**\n     * @dev Approve `to` to operate on `tokenId`\n     *\n     * Emits a {Approval} event.\n     */\n    function _approve(address to, uint256 tokenId) internal virtual {\n        _tokenApprovals[tokenId] = to;\n        emit Approval(ERC721.ownerOf(tokenId), to, tokenId);\n    }\n\n    /**\n     * @dev Approve `operator` to operate on all of `owner` tokens\n     *\n     * Emits a {ApprovalForAll} event.\n     */\n    function _setApprovalForAll(\n        address owner,\n        address operator,\n        bool approved\n    ) internal virtual {\n        require(owner != operator, \"ERC721: approve to caller\");\n        _operatorApprovals[owner][operator] = approved;\n        emit ApprovalForAll(owner, operator, approved);\n    }\n\n    /**\n     * @dev Internal function to invoke {IERC721Receiver-onERC721Received} on a target address.\n     * The call is not executed if the target address is not a contract.\n     *\n     * @param from address representing the previous owner of the given token ID\n     * @param to target address that will receive the tokens\n     * @param tokenId uint256 ID of the token to be transferred\n     * @param _data bytes optional data to send along with the call\n     * @return bool whether the call correctly returned the expected magic value\n     */\n    function _checkOnERC721Received(\n        address from,\n        address to,\n        uint256 tokenId,\n        bytes memory _data\n    ) private returns (bool) {\n        if (to.isContract()) {\n            try IERC721Receiver(to).onERC721Received(_msgSender(), from, tokenId, _data) returns (bytes4 retval) {\n                return retval == IERC721Receiver.onERC721Received.selector;\n            } catch (bytes memory reason) {\n                if (reason.length == 0) {\n                    revert(\"ERC721: transfer to non ERC721Receiver implementer\");\n                } else {\n                    assembly {\n                        revert(add(32, reason), mload(reason))\n                    }\n                }\n            }\n        } else {\n            return true;\n        }\n    }\n\n    /**\n     * @dev Hook that is called before any token transfer. This includes minting\n     * and burning.\n     *\n     * Calling conditions:\n     *\n     * - When `from` and `to` are both non-zero, ``from``'s `tokenId` will be\n     * transferred to `to`.\n     * - When `from` is zero, `tokenId` will be minted for `to`.\n     * - When `to` is zero, ``from``'s `tokenId` will be burned.\n     * - `from` and `to` are never both zero.\n     *\n     * To learn more about hooks, head to xref:ROOT:extending-contracts.adoc#using-hooks[Using Hooks].\n     */\n    function _beforeTokenTransfer(\n        address from,\n        address to,\n        uint256 tokenId\n    ) internal virtual {}\n\n    /**\n     * @dev Hook that is called after any transfer of tokens. This includes\n     * minting and burning.\n     *\n     * Calling conditions:\n     *\n     * - when `from` and `to` are both non-zero.\n     * - `from` and `to` are never both zero.\n     *\n     * To learn more about hooks, head to xref:ROOT:extending-contracts.adoc#using-hooks[Using Hooks].\n     */\n    function _afterTokenTransfer(\n        address from,\n        address to,\n        uint256 tokenId\n    ) internal virtual {}\n}\n\n// File: @openzeppelin/contracts/token/ERC721/extensions/ERC721Enumerable.sol\n\n\n// OpenZeppelin Contracts v4.4.1 (token/ERC721/extensions/ERC721Enumerable.sol)\n\npragma solidity ^0.8.0;\n\n\n\n/**\n * @dev This implements an optional extension of {ERC721} defined in the EIP that adds\n * enumerability of all the token ids in the contract as well as all token ids owned by each\n * account.\n */\nabstract contract ERC721Enumerable is ERC721, IERC721Enumerable {\n    // Mapping from owner to list of owned token IDs\n    mapping(address => mapping(uint256 => uint256)) private _ownedTokens;\n\n    // Mapping from token ID to index of the owner tokens list\n    mapping(uint256 => uint256) private _ownedTokensIndex;\n\n    // Array with all token ids, used for enumeration\n    uint256[] private _allTokens;\n\n    // Mapping from token id to position in the allTokens array\n    mapping(uint256 => uint256) private _allTokensIndex;\n\n    /**\n     * @dev See {IERC165-supportsInterface}.\n     */\n    function supportsInterface(bytes4 interfaceId) public view virtual override(IERC165, ERC721) returns (bool) {\n        return interfaceId == type(IERC721Enumerable).interfaceId || super.supportsInterface(interfaceId);\n    }\n\n    /**\n     * @dev See {IERC721Enumerable-tokenOfOwnerByIndex}.\n     */\n    function tokenOfOwnerByIndex(address owner, uint256 index) public view virtual override returns (uint256) {\n        require(index < ERC721.balanceOf(owner), \"ERC721Enumerable: owner index out of bounds\");\n        return _ownedTokens[owner][index];\n    }\n\n    /**\n     * @dev See {IERC721Enumerable-totalSupply}.\n     */\n    function totalSupply() public view virtual override returns (uint256) {\n        return _allTokens.length;\n    }\n\n    /**\n     * @dev See {IERC721Enumerable-tokenByIndex}.\n     */\n    function tokenByIndex(uint256 index) public view virtual override returns (uint256) {\n        require(index < ERC721Enumerable.totalSupply(), \"ERC721Enumerable: global index out of bounds\");\n        return _allTokens[index];\n    }\n\n    /**\n     * @dev Hook that is called before any token transfer. This includes minting\n     * and burning.\n     *\n     * Calling conditions:\n     *\n     * - When `from` and `to` are both non-zero, ``from``'s `tokenId` will be\n     * transferred to `to`.\n     * - When `from` is zero, `tokenId` will be minted for `to`.\n     * - When `to` is zero, ``from``'s `tokenId` will be burned.\n     * - `from` cannot be the zero address.\n     * - `to` cannot be the zero address.\n     *\n     * To learn more about hooks, head to xref:ROOT:extending-contracts.adoc#using-hooks[Using Hooks].\n     */\n    function _beforeTokenTransfer(\n        address from,\n        address to,\n        uint256 tokenId\n    ) internal virtual override {\n        super._beforeTokenTransfer(from, to, tokenId);\n\n        if (from == address(0)) {\n            _addTokenToAllTokensEnumeration(tokenId);\n        } else if (from != to) {\n            _removeTokenFromOwnerEnumeration(from, tokenId);\n        }\n        if (to == address(0)) {\n            _removeTokenFromAllTokensEnumeration(tokenId);\n        } else if (to != from) {\n            _addTokenToOwnerEnumeration(to, tokenId);\n        }\n    }\n\n    /**\n     * @dev Private function to add a token to this extension's ownership-tracking data structures.\n     * @param to address representing the new owner of the given token ID\n     * @param tokenId uint256 ID of the token to be added to the tokens list of the given address\n     */\n    function _addTokenToOwnerEnumeration(address to, uint256 tokenId) private {\n        uint256 length = ERC721.balanceOf(to);\n        _ownedTokens[to][length] = tokenId;\n        _ownedTokensIndex[tokenId] = length;\n    }\n\n    /**\n     * @dev Private function to add a token to this extension's token tracking data structures.\n     * @param tokenId uint256 ID of the token to be added to the tokens list\n     */\n    function _addTokenToAllTokensEnumeration(uint256 tokenId) private {\n        _allTokensIndex[tokenId] = _allTokens.length;\n        _allTokens.push(tokenId);\n    }\n\n    /**\n     * @dev Private function to remove a token from this extension's ownership-tracking data structures. Note that\n     * while the token is not assigned a new owner, the `_ownedTokensIndex` mapping is _not_ updated: this allows for\n     * gas optimizations e.g. when performing a transfer operation (avoiding double writes).\n     * This has O(1) time complexity, but alters the order of the _ownedTokens array.\n     * @param from address representing the previous owner of the given token ID\n     * @param tokenId uint256 ID of the token to be removed from the tokens list of the given address\n     */\n    function _removeTokenFromOwnerEnumeration(address from, uint256 tokenId) private {\n        // To prevent a gap in from's tokens array, we store the last token in the index of the token to delete, and\n        // then delete the last slot (swap and pop).\n\n        uint256 lastTokenIndex = ERC721.balanceOf(from) - 1;\n        uint256 tokenIndex = _ownedTokensIndex[tokenId];\n\n        // When the token to delete is the last token, the swap operation is unnecessary\n        if (tokenIndex != lastTokenIndex) {\n            uint256 lastTokenId = _ownedTokens[from][lastTokenIndex];\n\n            _ownedTokens[from][tokenIndex] = lastTokenId; // Move the last token to the slot of the to-delete token\n            _ownedTokensIndex[lastTokenId] = tokenIndex; // Update the moved token's index\n        }\n\n        // This also deletes the contents at the last position of the array\n        delete _ownedTokensIndex[tokenId];\n        delete _ownedTokens[from][lastTokenIndex];\n    }\n\n    /**\n     * @dev Private function to remove a token from this extension's token tracking data structures.\n     * This has O(1) time complexity, but alters the order of the _allTokens array.\n     * @param tokenId uint256 ID of the token to be removed from the tokens list\n     */\n    function _removeTokenFromAllTokensEnumeration(uint256 tokenId) private {\n        // To prevent a gap in the tokens array, we store the last token in the index of the token to delete, and\n        // then delete the last slot (swap and pop).\n\n        uint256 lastTokenIndex = _allTokens.length - 1;\n        uint256 tokenIndex = _allTokensIndex[tokenId];\n\n        // When the token to delete is the last token, the swap operation is unnecessary. However, since this occurs so\n        // rarely (when the last minted token is burnt) that we still do the swap here to avoid the gas cost of adding\n        // an 'if' statement (like in _removeTokenFromOwnerEnumeration)\n        uint256 lastTokenId = _allTokens[lastTokenIndex];\n\n        _allTokens[tokenIndex] = lastTokenId; // Move the last token to the slot of the to-delete token\n        _allTokensIndex[lastTokenId] = tokenIndex; // Update the moved token's index\n\n        // This also deletes the contents at the last position of the array\n        delete _allTokensIndex[tokenId];\n        _allTokens.pop();\n    }\n}\n\n// File: contracts/RBCC.sol\n\n\n\npragma solidity >=0.7.0 <0.9.0;\n\n\n\n\ncontract RBCC is ERC721Enumerable, Ownable {\n    using Strings for uint256;\n\n    using SafeMath for uint32;\n\n    string public baseURI;\n    string public notRevealedUri;\n    string public baseExtension = \".json\";\n    uint256 public costofPresale = 0.05 ether;\n    uint256 public costofPublicSale = 0.089 ether;\n    uint256 public maxSupply = 3000;\n    uint256 public maxSupplyForPresale = 300;\n    uint256 public maxSupplyForPublicSale = maxSupply - maxSupplyForPresale;\n    uint256 public maxMintAmount = 1;\n    //uint256 public nftPerWhitelistAddressLimit = 1;\n    //uint256 public nftPerOGAddressLimit = 2;\n    bool public paused = false;\n    bool public revealed = false;\n    bool public onlyPresale = true;\n    \n    address[] private whitelistaddr;\n\n    mapping(address => bool) whitelistedAddresses;\n    mapping(address => uint256) public addressMintedBalance;\n\n    constructor(\n        string memory _name,\n        string memory _symbol,\n        string memory _initBaseURI,\n        string memory _initNotRevealedUri\n    ) ERC721(_name, _symbol) {\n        setBaseURI(_initBaseURI);\n        setNotRevealedURI(_initNotRevealedUri);\n    }\n\n    // internal\n    function _baseURI() internal view virtual override returns (string memory) {\n        return baseURI;\n    }\n\n    // public\n    function mint(uint256 _mintAmount) public payable {\n        require(!paused, \"the contract is paused\");\n        uint256 supply = totalSupply();\n        require(_mintAmount == maxMintAmount, \"1 NFT allowed per address\");\n        require(supply + _mintAmount <= maxSupplyForPublicSale, \"max NFT limit exceeded\");\n        // require(supply + _mintAmount <= maxSupply - reserved, \"max NFT limit exceeded\");\n\n        if (msg.sender != owner()) {\n            require(\n            whitelistedAddresses[msg.sender] == false,\n            \"Address already whitelisted!\"\n            );\n            require(!onlyPresale, \"Presale is on\");\n            require(_mintAmount == maxMintAmount, \"max mint amount per session exceeded\");\n            require(msg.value >= costofPublicSale * _mintAmount, \"insufficient funds\");\n        }\n\n        for (uint256 i = 1; i <= _mintAmount; i++) {\n            addressMintedBalance[msg.sender]++;\n            _safeMint(msg.sender, supply + i);\n        }\n    }\n\n    function whitelistMint(\n        uint256 _mintAmount\n    ) public payable \n    {\n        require(!paused, \"the contract is paused\");\n        require(onlyPresale, \"Presale has been finished\");\n        uint256 supply = totalSupply();\n        require(_mintAmount == maxMintAmount, \"1 NFT per address allowed to mint\");\n        require(supply + _mintAmount <= maxSupplyForPresale, \"max NFT limit for presale exceeded\");\n\n        uint256 ownerMintedCount = addressMintedBalance[msg.sender];\n\n        require(\n                ownerMintedCount + _mintAmount <= maxMintAmount,\n                \"max NFT per whitelist address exceeded\"\n            );\n        \n        // Check if user is whitelisted\n        require(\n            whitelistedAddresses[msg.sender] == true,\n            \"Whitelist: You need to be whitelisted\"\n            );\n\n        require(msg.value >= costofPresale * _mintAmount, \"insufficient funds\");\n\n        for (uint256 i = 1; i <= _mintAmount; i++) {\n            addressMintedBalance[msg.sender]++;\n            _safeMint(msg.sender, supply + i);\n        }\n    }\n\n    function addwhitelistaddresses(address[] calldata _WL) external onlyOwner {\n        for( uint i = 0; i < _WL.length; i++) \n        {\n          whitelistedAddresses[_WL[i]] = true;\n          whitelistaddr.push(_WL[i]);\n        }\n    }\n\n    function walletOfOwner(address _owner) public view returns (uint256[] memory) {\n        uint256 ownerTokenCount = balanceOf(_owner);\n        uint256[] memory tokenIds = new uint256[](ownerTokenCount);\n        for (uint256 i; i < ownerTokenCount; i++) {\n            tokenIds[i] = tokenOfOwnerByIndex(_owner, i);\n        }\n        return tokenIds;\n    }\n\n    function tokenURI(uint256 tokenId) public view virtual override returns (string memory) {\n        require(_exists(tokenId), \"ERC721Metadata: URI query for nonexistent token\");\n\n        if (revealed == false) {\n            return notRevealedUri;\n        }\n\n        string memory currentBaseURI = _baseURI();\n        return\n            bytes(currentBaseURI).length > 0\n                ? string(abi.encodePacked(currentBaseURI, tokenId.toString(), baseExtension))\n                : \"\";\n    }\n\n    function setBaseURI(string memory _newBaseURI) public onlyOwner {\n        baseURI = _newBaseURI;\n    }\n\n    function setNotRevealedURI(string memory _notRevealedURI) public onlyOwner {\n        notRevealedUri = _notRevealedURI;\n    }\n\n    function setBaseExtension(string memory _newBaseExtension) public onlyOwner {\n        baseExtension = _newBaseExtension;\n    }\n\n    function reveal() public onlyOwner {\n        revealed = true;\n    }\n\n    function setmaxMintAmount(uint256 _newmaxMintAmount) public onlyOwner {\n        maxMintAmount = _newmaxMintAmount;\n    }\n\n    function pause(bool _state) public onlyOwner {\n        paused = _state;\n    }\n\n    function setOnlyPresale(bool _state) public onlyOwner {\n        onlyPresale = _state;\n    }\n\n    function withdraw() public payable onlyOwner {\n        (bool os, ) = payable(owner()).call{value: address(this).balance}(\"\");\n        require(os);\n    }\n}",
  "sourcePath": "/home/blackhole/nodejs/multicall/contracts/RBCC.sol",
  "compiler": {
    "name": "solc",
    "version": "0.8.12+commit.f00d7308.Emscripten.clang"
  },
  "schemaVersion": "3.4.5",
  "updatedAt": "2022-03-22T09:47:39.468Z",
  "networkType": "ethereum",
  "devdoc": {
    "kind": "dev",
    "methods": {
      "approve(address,uint256)": {
        "details": "See {IERC721-approve}."
      },
      "balanceOf(address)": {
        "details": "See {IERC721-balanceOf}."
      },
      "getApproved(uint256)": {
        "details": "See {IERC721-getApproved}."
      },
      "isApprovedForAll(address,address)": {
        "details": "See {IERC721-isApprovedForAll}."
      },
      "name()": {
        "details": "See {IERC721Metadata-name}."
      },
      "owner()": {
        "details": "Returns the address of the current owner."
      },
      "ownerOf(uint256)": {
        "details": "See {IERC721-ownerOf}."
      },
      "renounceOwnership()": {
        "details": "Leaves the contract without owner. It will not be possible to call `onlyOwner` functions anymore. Can only be called by the current owner. NOTE: Renouncing ownership will leave the contract without an owner, thereby removing any functionality that is only available to the owner."
      },
      "safeTransferFrom(address,address,uint256)": {
        "details": "See {IERC721-safeTransferFrom}."
      },
      "safeTransferFrom(address,address,uint256,bytes)": {
        "details": "See {IERC721-safeTransferFrom}."
      },
      "setApprovalForAll(address,bool)": {
        "details": "See {IERC721-setApprovalForAll}."
      },
      "supportsInterface(bytes4)": {
        "details": "See {IERC165-supportsInterface}."
      },
      "symbol()": {
        "details": "See {IERC721Metadata-symbol}."
      },
      "tokenByIndex(uint256)": {
        "details": "See {IERC721Enumerable-tokenByIndex}."
      },
      "tokenOfOwnerByIndex(address,uint256)": {
        "details": "See {IERC721Enumerable-tokenOfOwnerByIndex}."
      },
      "tokenURI(uint256)": {
        "details": "See {IERC721Metadata-tokenURI}."
      },
      "totalSupply()": {
        "details": "See {IERC721Enumerable-totalSupply}."
      },
      "transferFrom(address,address,uint256)": {
        "details": "See {IERC721-transferFrom}."
      },
      "transferOwnership(address)": {
        "details": "Transfers ownership of the contract to a new account (`newOwner`). Can only be called by the current owner."
      }
    },
    "version": 1
  },
  "userdoc": {
    "kind": "user",
    "methods": {},
    "version": 1
  }
}