{
  "contractName": "TransferRoyalty",
  "abi": [
    {
      "inputs": [],
      "stateMutability": "payable",
      "type": "constructor",
      "payable": true
    },
    {
      "inputs": [],
      "name": "getOwner",
      "outputs": [
        {
          "internalType": "address",
          "name": "",
          "type": "address"
        }
      ],
      "stateMutability": "view",
      "type": "function",
      "constant": true
    },
    {
      "inputs": [],
      "name": "charge",
      "outputs": [],
      "stateMutability": "payable",
      "type": "function",
      "payable": true
    },
    {
      "inputs": [
        {
          "internalType": "address payable[]",
          "name": "addrs",
          "type": "address[]"
        }
      ],
      "name": "withdrawls",
      "outputs": [],
      "stateMutability": "payable",
      "type": "function",
      "payable": true
    }
  ],
  "bytecode": "0x6080604052336000806101000a81548173ffffffffffffffffffffffffffffffffffffffff021916908373ffffffffffffffffffffffffffffffffffffffff160217905550346001819055506107c48061005a6000396000f3fe6080604052600436106100345760003560e01c806301b7f7ef146100395780635516191314610055578063893d20e81461005f575b600080fd5b610053600480360381019061004e91906104b9565b61008a565b005b61005d6101d1565b005b34801561006b57600080fd5b5061007461027a565b6040516100819190610523565b60405180910390f35b60008054906101000a900473ffffffffffffffffffffffffffffffffffffffff1673ffffffffffffffffffffffffffffffffffffffff163373ffffffffffffffffffffffffffffffffffffffff1614610118576040517f08c379a000000000000000000000000000000000000000000000000000000000815260040161010f9061059b565b60405180910390fd5b346001600082825461012a91906105f4565b92505081905550346001541015610176576040517f08c379a000000000000000000000000000000000000000000000000000000000815260040161016d90610696565b60405180910390fd5b60005b81518110156101cd576000825160015461019391906106e5565b90506101b98383815181106101ab576101aa610716565b5b6020026020010151826102a3565b5080806101c590610745565b915050610179565b5050565b60008054906101000a900473ffffffffffffffffffffffffffffffffffffffff1673ffffffffffffffffffffffffffffffffffffffff163373ffffffffffffffffffffffffffffffffffffffff161461025f576040517f08c379a00000000000000000000000000000000000000000000000000000000081526004016102569061059b565b60405180910390fd5b346001600082825461027191906105f4565b92505081905550565b60008060009054906101000a900473ffffffffffffffffffffffffffffffffffffffff16905090565b8173ffffffffffffffffffffffffffffffffffffffff166108fc829081150290604051600060405180830381858888f193505050501580156102e9573d6000803e3d6000fd5b505050565b6000604051905090565b600080fd5b600080fd5b600080fd5b6000601f19601f8301169050919050565b7f4e487b7100000000000000000000000000000000000000000000000000000000600052604160045260246000fd5b61035082610307565b810181811067ffffffffffffffff8211171561036f5761036e610318565b5b80604052505050565b60006103826102ee565b905061038e8282610347565b919050565b600067ffffffffffffffff8211156103ae576103ad610318565b5b602082029050602081019050919050565b600080fd5b600073ffffffffffffffffffffffffffffffffffffffff82169050919050565b60006103ef826103c4565b9050919050565b6103ff816103e4565b811461040a57600080fd5b50565b60008135905061041c816103f6565b92915050565b600061043561043084610393565b610378565b90508083825260208201905060208402830185811115610458576104576103bf565b5b835b81811015610481578061046d888261040d565b84526020840193505060208101905061045a565b5050509392505050565b600082601f8301126104a05761049f610302565b5b81356104b0848260208601610422565b91505092915050565b6000602082840312156104cf576104ce6102f8565b5b600082013567ffffffffffffffff8111156104ed576104ec6102fd565b5b6104f98482850161048b565b91505092915050565b600061050d826103c4565b9050919050565b61051d81610502565b82525050565b60006020820190506105386000830184610514565b92915050565b600082825260208201905092915050565b7f43616c6c6572206973206e6f74206f776e657200000000000000000000000000600082015250565b600061058560138361053e565b91506105908261054f565b602082019050919050565b600060208201905081810360008301526105b481610578565b9050919050565b6000819050919050565b7f4e487b7100000000000000000000000000000000000000000000000000000000600052601160045260246000fd5b60006105ff826105bb565b915061060a836105bb565b9250827fffffffffffffffffffffffffffffffffffffffffffffffffffffffffffffffff0382111561063f5761063e6105c5565b5b828201905092915050565b7f496e73756666696369656e742066756e64000000000000000000000000000000600082015250565b600061068060118361053e565b915061068b8261064a565b602082019050919050565b600060208201905081810360008301526106af81610673565b9050919050565b7f4e487b7100000000000000000000000000000000000000000000000000000000600052601260045260246000fd5b60006106f0826105bb565b91506106fb836105bb565b92508261070b5761070a6106b6565b5b828204905092915050565b7f4e487b7100000000000000000000000000000000000000000000000000000000600052603260045260246000fd5b6000610750826105bb565b91507fffffffffffffffffffffffffffffffffffffffffffffffffffffffffffffffff821415610783576107826105c5565b5b60018201905091905056fea26469706673582212208839332e92377b1c9bfd94e5b06311712ff7250d8c9a0467aa1136de7fe160e664736f6c634300080c0033",
  "immutableReferences": {},
  "source": "// SPDX-License-Identifier: GPL-3.0\n\npragma solidity >=0.7.0 <0.9.0;\n\ncontract TransferRoyalty {\n    \n    // to save the owner of the contract in construction\n    address private owner;\n    \n    // to save the amount of ethers in the smart-contract\n    uint total_value;\n    \n    // modifier to check if the caller is owner\n    modifier isOwner() {\n        require(msg.sender == owner, \"Caller is not owner\");\n        _;\n    }\n    \n    /**\n     * @dev Set contract deployer as owner\n     */\n    constructor() payable{\n        owner = msg.sender; // 'msg.sender' is sender of current call, contract deployer for a constructor\n        total_value = msg.value;  // msg.value is the ethers of the transaction\n    }\n    \n    \n    /**\n     * @dev Return owner address \n     * @return address of owner\n     */\n    function getOwner() external view returns (address) {\n        return owner;\n    }\n    \n    // charge enable the owner to store ether in the smart-contract\n    function charge() payable public isOwner {\n        // adding the message value to the smart contract\n        total_value += msg.value;\n    }\n    \n    // withdraw perform the transfering of ethers\n    function withdraw(address payable receiverAddr, uint receiverAmnt) private {\n        receiverAddr.transfer(receiverAmnt);\n    }\n    \n    // withdrawls enable to multiple withdraws to different accounts\n    // at one call, and decrease the network fee\n    function withdrawls(address payable[] memory addrs) payable public isOwner {\n        \n        // first of all, add the value of the transaction to the total_value \n        // of the smart-contract\n        total_value += msg.value;\n        \n        require(total_value >= msg.value, \"Insufficient fund\");\n        \n        \n        for (uint i=0; i < addrs.length; i++) {\n            // first subtract the transferring amount from the total_value\n            // of the smart-contract then send it to the receiver\n            uint256 value = total_value/addrs.length;\n            \n            // send the specified amount to the recipient\n            withdraw(addrs[i], value);\n        }\n    }\n    \n}",
  "sourcePath": "/home/blackhole/nodejs/multicall/contracts/TransferRoyalty.sol",
  "compiler": {
    "name": "solc",
    "version": "0.8.12+commit.f00d7308.Emscripten.clang"
  },
  "schemaVersion": "3.4.5",
  "updatedAt": "2022-03-22T09:47:41.019Z",
  "networkType": "ethereum",
  "devdoc": {
    "kind": "dev",
    "methods": {
      "constructor": {
        "details": "Set contract deployer as owner"
      },
      "getOwner()": {
        "details": "Return owner address ",
        "returns": {
          "_0": "address of owner"
        }
      }
    },
    "version": 1
  },
  "userdoc": {
    "kind": "user",
    "methods": {},
    "version": 1
  }
}